{
  "_format": "hh3-artifact-1",
  "contractName": "MusicRegistry",
  "sourceName": "contracts/MusicRegistry.sol",
  "abi": [
    {
      "inputs": [
        {
          "internalType": "string",
          "name": "fieldName",
          "type": "string"
        }
      ],
      "name": "EmptyField",
      "type": "error"
    },
    {
      "inputs": [
        {
          "internalType": "uint256",
          "name": "trackId",
          "type": "uint256"
        }
      ],
      "name": "TrackNotFound",
      "type": "error"
    },
    {
      "anonymous": false,
      "inputs": [
        {
          "indexed": true,
          "internalType": "uint256",
          "name": "trackId",
          "type": "uint256"
        },
        {
          "indexed": false,
          "internalType": "uint256",
          "name": "newPlayCount",
          "type": "uint256"
        }
      ],
      "name": "PlayCountIncremented",
      "type": "event"
    },
    {
      "anonymous": false,
      "inputs": [
        {
          "indexed": true,
          "internalType": "uint256",
          "name": "trackId",
          "type": "uint256"
        },
        {
          "indexed": true,
          "internalType": "address",
          "name": "artist",
          "type": "address"
        },
        {
          "indexed": false,
          "internalType": "string",
          "name": "title",
          "type": "string"
        },
        {
          "indexed": false,
          "internalType": "string",
          "name": "genre",
          "type": "string"
        },
        {
          "indexed": false,
          "internalType": "string",
          "name": "ipfsCID",
          "type": "string"
        },
        {
          "indexed": false,
          "internalType": "string",
          "name": "coverArtCID",
          "type": "string"
        },
        {
          "indexed": false,
          "internalType": "uint256",
          "name": "timestamp",
          "type": "uint256"
        }
      ],
      "name": "TrackUploaded",
      "type": "event"
    },
    {
      "inputs": [
        {
          "internalType": "uint256",
          "name": "trackId",
          "type": "uint256"
        }
      ],
      "name": "getTrack",
      "outputs": [
        {
          "components": [
            {
              "internalType": "uint256",
              "name": "id",
              "type": "uint256"
            },
            {
              "internalType": "address",
              "name": "artist",
              "type": "address"
            },
            {
              "internalType": "string",
              "name": "title",
              "type": "string"
            },
            {
              "internalType": "string",
              "name": "artistName",
              "type": "string"
            },
            {
              "internalType": "string",
              "name": "genre",
              "type": "string"
            },
            {
              "internalType": "string",
              "name": "ipfsCID",
              "type": "string"
            },
            {
              "internalType": "string",
              "name": "coverArtCID",
              "type": "string"
            },
            {
              "internalType": "uint256",
              "name": "timestamp",
              "type": "uint256"
            },
            {
              "internalType": "uint256",
              "name": "playCount",
              "type": "uint256"
            },
            {
              "internalType": "bool",
              "name": "exists",
              "type": "bool"
            }
          ],
          "internalType": "struct MusicRegistry.Track",
          "name": "",
          "type": "tuple"
        }
      ],
      "stateMutability": "view",
      "type": "function"
    },
    {
      "inputs": [
        {
          "internalType": "address",
          "name": "artist",
          "type": "address"
        }
      ],
      "name": "getTrackIdsByArtist",
      "outputs": [
        {
          "internalType": "uint256[]",
          "name": "",
          "type": "uint256[]"
        }
      ],
      "stateMutability": "view",
      "type": "function"
    },
    {
      "inputs": [
        {
          "internalType": "address",
          "name": "artist",
          "type": "address"
        }
      ],
      "name": "getTracksByArtist",
      "outputs": [
        {
          "components": [
            {
              "internalType": "uint256",
              "name": "id",
              "type": "uint256"
            },
            {
              "internalType": "address",
              "name": "artist",
              "type": "address"
            },
            {
              "internalType": "string",
              "name": "title",
              "type": "string"
            },
            {
              "internalType": "string",
              "name": "artistName",
              "type": "string"
            },
            {
              "internalType": "string",
              "name": "genre",
              "type": "string"
            },
            {
              "internalType": "string",
              "name": "ipfsCID",
              "type": "string"
            },
            {
              "internalType": "string",
              "name": "coverArtCID",
              "type": "string"
            },
            {
              "internalType": "uint256",
              "name": "timestamp",
              "type": "uint256"
            },
            {
              "internalType": "uint256",
              "name": "playCount",
              "type": "uint256"
            },
            {
              "internalType": "bool",
              "name": "exists",
              "type": "bool"
            }
          ],
          "internalType": "struct MusicRegistry.Track[]",
          "name": "",
          "type": "tuple[]"
        }
      ],
      "stateMutability": "view",
      "type": "function"
    },
    {
      "inputs": [
        {
          "internalType": "uint256",
          "name": "trackId",
          "type": "uint256"
        }
      ],
      "name": "incrementPlayCount",
      "outputs": [],
      "stateMutability": "nonpayable",
      "type": "function"
    },
    {
      "inputs": [],
      "name": "totalTracks",
      "outputs": [
        {
          "internalType": "uint256",
          "name": "",
          "type": "uint256"
        }
      ],
      "stateMutability": "view",
      "type": "function"
    },
    {
      "inputs": [
        {
          "internalType": "string",
          "name": "title",
          "type": "string"
        },
        {
          "internalType": "string",
          "name": "artistName",
          "type": "string"
        },
        {
          "internalType": "string",
          "name": "genre",
          "type": "string"
        },
        {
          "internalType": "string",
          "name": "ipfsCID",
          "type": "string"
        },
        {
          "internalType": "string",
          "name": "coverArtCID",
          "type": "string"
        }
      ],
      "name": "uploadTrack",
      "outputs": [
        {
          "internalType": "uint256",
          "name": "trackId",
          "type": "uint256"
        }
      ],
      "stateMutability": "nonpayable",
      "type": "function"
    }
  ],
  "bytecode": "0x6080604052348015600e575f5ffd5b50611dd08061001c5f395ff3fe608060405234801561000f575f5ffd5b5060043610610060575f3560e01c806307c757b91461006457806326f85f6a1461009457806340dee0b5146100b0578063629058ca146100ce578063971e24f4146100fe578063cef8572b1461012e575b5f5ffd5b61007e600480360381019061007991906110f4565b61015e565b60405161008b91906111df565b60405180910390f35b6100ae60048036038101906100a99190611229565b6101f1565b005b6100b86102cc565b6040516100c59190611263565b60405180910390f35b6100e860048036038101906100e39190611229565b6102d4565b6040516100f59190611408565b60405180910390f35b61011860048036038101906101139190611489565b6106be565b6040516101259190611263565b60405180910390f35b610148600480360381019061014391906110f4565b610b6e565b604051610155919061174e565b60405180910390f35b606060025f8373ffffffffffffffffffffffffffffffffffffffff1673ffffffffffffffffffffffffffffffffffffffff1681526020019081526020015f208054806020026020016040519081016040528092919081815260200182805480156101e557602002820191905f5260205f20905b8154815260200190600101908083116101d1575b50505050509050919050565b60015f8281526020019081526020015f206009015f9054906101000a900460ff1661025357806040517fd3802da100000000000000000000000000000000000000000000000000000000815260040161024a9190611263565b60405180910390fd5b6001805f8381526020019081526020015f206008015f828254610276919061179b565b92505081905550807f78c4e8add049b7f7c638c3c7a65171f089f3a8e8da983d1dcd647c645226cde860015f8481526020019081526020015f20600801546040516102c19190611263565b60405180910390a250565b5f5f54905090565b6102dc61102c565b60015f8381526020019081526020015f206009015f9054906101000a900460ff1661033e57816040517fd3802da10000000000000000000000000000000000000000000000000000000081526004016103359190611263565b60405180910390fd5b60015f8381526020019081526020015f20604051806101400160405290815f8201548152602001600182015f9054906101000a900473ffffffffffffffffffffffffffffffffffffffff1673ffffffffffffffffffffffffffffffffffffffff1673ffffffffffffffffffffffffffffffffffffffff1681526020016002820180546103c9906117fb565b80601f01602080910402602001604051908101604052809291908181526020018280546103f5906117fb565b80156104405780601f1061041757610100808354040283529160200191610440565b820191905f5260205f20905b81548152906001019060200180831161042357829003601f168201915b50505050508152602001600382018054610459906117fb565b80601f0160208091040260200160405190810160405280929190818152602001828054610485906117fb565b80156104d05780601f106104a7576101008083540402835291602001916104d0565b820191905f5260205f20905b8154815290600101906020018083116104b357829003601f168201915b505050505081526020016004820180546104e9906117fb565b80601f0160208091040260200160405190810160405280929190818152602001828054610515906117fb565b80156105605780601f1061053757610100808354040283529160200191610560565b820191905f5260205f20905b81548152906001019060200180831161054357829003601f168201915b50505050508152602001600582018054610579906117fb565b80601f01602080910402602001604051908101604052809291908181526020018280546105a5906117fb565b80156105f05780601f106105c7576101008083540402835291602001916105f0565b820191905f5260205f20905b8154815290600101906020018083116105d357829003601f168201915b50505050508152602001600682018054610609906117fb565b80601f0160208091040260200160405190810160405280929190818152602001828054610635906117fb565b80156106805780601f1061065757610100808354040283529160200191610680565b820191905f5260205f20905b81548152906001019060200180831161066357829003601f168201915b505050505081526020016007820154815260200160088201548152602001600982015f9054906101000a900460ff1615151515815250509050919050565b5f5f8b8b905003610704576040517fa69290e70000000000000000000000000000000000000000000000000000000081526004016106fb90611885565b60405180910390fd5b5f8989905003610749576040517fa69290e7000000000000000000000000000000000000000000000000000000008152600401610740906118ed565b60405180910390fd5b5f858590500361078e576040517fa69290e700000000000000000000000000000000000000000000000000000000815260040161078590611955565b60405180910390fd5b5f83839050036107d3576040517fa69290e70000000000000000000000000000000000000000000000000000000081526004016107ca906119bd565b60405180910390fd5b5f5490505f5f8154809291906107e8906119db565b91905055506040518061014001604052808281526020013373ffffffffffffffffffffffffffffffffffffffff1681526020018c8c8080601f0160208091040260200160405190810160405280939291908181526020018383808284375f81840152601f19601f8201169050808301925050505050505081526020018a8a8080601f0160208091040260200160405190810160405280939291908181526020018383808284375f81840152601f19601f82011690508083019250505050505050815260200188888080601f0160208091040260200160405190810160405280939291908181526020018383808284375f81840152601f19601f82011690508083019250505050505050815260200186868080601f0160208091040260200160405190810160405280939291908181526020018383808284375f81840152601f19601f82011690508083019250505050505050815260200184848080601f0160208091040260200160405190810160405280939291908181526020018383808284375f81840152601f19601f8201169050808301925050505050505081526020014281526020015f81526020016001151581525060015f8381526020019081526020015f205f820151815f01556020820151816001015f6101000a81548173ffffffffffffffffffffffffffffffffffffffff021916908373ffffffffffffffffffffffffffffffffffffffff1602179055506040820151816002019081610a0f9190611bef565b506060820151816003019081610a259190611bef565b506080820151816004019081610a3b9190611bef565b5060a0820151816005019081610a519190611bef565b5060c0820151816006019081610a679190611bef565b5060e082015181600701556101008201518160080155610120820151816009015f6101000a81548160ff02191690831515021790555090505060025f3373ffffffffffffffffffffffffffffffffffffffff1673ffffffffffffffffffffffffffffffffffffffff1681526020019081526020015f2081908060018154018082558091505060019003905f5260205f20015f90919091909150553373ffffffffffffffffffffffffffffffffffffffff16817fe12f2c152450e7d13bf2417d49c136589465cb8e2eb0171ec7584dc057107c008d8d8b8b8b8b8b8b42604051610b5899989796959493929190611cf8565b60405180910390a39a9950505050505050505050565b60605f60025f8473ffffffffffffffffffffffffffffffffffffffff1673ffffffffffffffffffffffffffffffffffffffff1681526020019081526020015f20805480602002602001604051908101604052809291908181526020018280548015610bf657602002820191905f5260205f20905b815481526020019060010190808311610be2575b505050505090505f815167ffffffffffffffff811115610c1957610c18611a22565b5b604051908082528060200260200182016040528015610c5257816020015b610c3f61102c565b815260200190600190039081610c375790505b5090505f5f90505b82518110156110215760015f848381518110610c7957610c78611d6d565b5b602002602001015181526020019081526020015f20604051806101400160405290815f8201548152602001600182015f9054906101000a900473ffffffffffffffffffffffffffffffffffffffff1673ffffffffffffffffffffffffffffffffffffffff1673ffffffffffffffffffffffffffffffffffffffff168152602001600282018054610d08906117fb565b80601f0160208091040260200160405190810160405280929190818152602001828054610d34906117fb565b8015610d7f5780601f10610d5657610100808354040283529160200191610d7f565b820191905f5260205f20905b815481529060010190602001808311610d6257829003601f168201915b50505050508152602001600382018054610d98906117fb565b80601f0160208091040260200160405190810160405280929190818152602001828054610dc4906117fb565b8015610e0f5780601f10610de657610100808354040283529160200191610e0f565b820191905f5260205f20905b815481529060010190602001808311610df257829003601f168201915b50505050508152602001600482018054610e28906117fb565b80601f0160208091040260200160405190810160405280929190818152602001828054610e54906117fb565b8015610e9f5780601f10610e7657610100808354040283529160200191610e9f565b820191905f5260205f20905b815481529060010190602001808311610e8257829003601f168201915b50505050508152602001600582018054610eb8906117fb565b80601f0160208091040260200160405190810160405280929190818152602001828054610ee4906117fb565b8015610f2f5780601f10610f0657610100808354040283529160200191610f2f565b820191905f5260205f20905b815481529060010190602001808311610f1257829003601f168201915b50505050508152602001600682018054610f48906117fb565b80601f0160208091040260200160405190810160405280929190818152602001828054610f74906117fb565b8015610fbf5780601f10610f9657610100808354040283529160200191610fbf565b820191905f5260205f20905b815481529060010190602001808311610fa257829003601f168201915b505050505081526020016007820154815260200160088201548152602001600982015f9054906101000a900460ff16151515158152505082828151811061100957611008611d6d565b5b60200260200101819052508080600101915050610c5a565b508092505050919050565b6040518061014001604052805f81526020015f73ffffffffffffffffffffffffffffffffffffffff16815260200160608152602001606081526020016060815260200160608152602001606081526020015f81526020015f81526020015f151581525090565b5f5ffd5b5f5ffd5b5f73ffffffffffffffffffffffffffffffffffffffff82169050919050565b5f6110c38261109a565b9050919050565b6110d3816110b9565b81146110dd575f5ffd5b50565b5f813590506110ee816110ca565b92915050565b5f6020828403121561110957611108611092565b5b5f611116848285016110e0565b91505092915050565b5f81519050919050565b5f82825260208201905092915050565b5f819050602082019050919050565b5f819050919050565b61115a81611148565b82525050565b5f61116b8383611151565b60208301905092915050565b5f602082019050919050565b5f61118d8261111f565b6111978185611129565b93506111a283611139565b805f5b838110156111d25781516111b98882611160565b97506111c483611177565b9250506001810190506111a5565b5085935050505092915050565b5f6020820190508181035f8301526111f78184611183565b905092915050565b61120881611148565b8114611212575f5ffd5b50565b5f81359050611223816111ff565b92915050565b5f6020828403121561123e5761123d611092565b5b5f61124b84828501611215565b91505092915050565b61125d81611148565b82525050565b5f6020820190506112765f830184611254565b92915050565b611285816110b9565b82525050565b5f81519050919050565b5f82825260208201905092915050565b8281835e5f83830152505050565b5f601f19601f8301169050919050565b5f6112cd8261128b565b6112d78185611295565b93506112e78185602086016112a5565b6112f0816112b3565b840191505092915050565b5f8115159050919050565b61130f816112fb565b82525050565b5f61014083015f83015161132b5f860182611151565b50602083015161133e602086018261127c565b506040830151848203604086015261135682826112c3565b9150506060830151848203606086015261137082826112c3565b9150506080830151848203608086015261138a82826112c3565b91505060a083015184820360a08601526113a482826112c3565b91505060c083015184820360c08601526113be82826112c3565b91505060e08301516113d360e0860182611151565b506101008301516113e8610100860182611151565b506101208301516113fd610120860182611306565b508091505092915050565b5f6020820190508181035f8301526114208184611315565b905092915050565b5f5ffd5b5f5ffd5b5f5ffd5b5f5f83601f84011261144957611448611428565b5b8235905067ffffffffffffffff8111156114665761146561142c565b5b60208301915083600182028301111561148257611481611430565b5b9250929050565b5f5f5f5f5f5f5f5f5f5f60a08b8d0312156114a7576114a6611092565b5b5f8b013567ffffffffffffffff8111156114c4576114c3611096565b5b6114d08d828e01611434565b9a509a505060208b013567ffffffffffffffff8111156114f3576114f2611096565b5b6114ff8d828e01611434565b985098505060408b013567ffffffffffffffff81111561152257611521611096565b5b61152e8d828e01611434565b965096505060608b013567ffffffffffffffff81111561155157611550611096565b5b61155d8d828e01611434565b945094505060808b013567ffffffffffffffff8111156115805761157f611096565b5b61158c8d828e01611434565b92509250509295989b9194979a5092959850565b5f81519050919050565b5f82825260208201905092915050565b5f819050602082019050919050565b5f61014083015f8301516115df5f860182611151565b5060208301516115f2602086018261127c565b506040830151848203604086015261160a82826112c3565b9150506060830151848203606086015261162482826112c3565b9150506080830151848203608086015261163e82826112c3565b91505060a083015184820360a086015261165882826112c3565b91505060c083015184820360c086015261167282826112c3565b91505060e083015161168760e0860182611151565b5061010083015161169c610100860182611151565b506101208301516116b1610120860182611306565b508091505092915050565b5f6116c783836115c9565b905092915050565b5f602082019050919050565b5f6116e5826115a0565b6116ef81856115aa565b935083602082028501611701856115ba565b805f5b8581101561173c578484038952815161171d85826116bc565b9450611728836116cf565b925060208a01995050600181019050611704565b50829750879550505050505092915050565b5f6020820190508181035f83015261176681846116db565b905092915050565b7f4e487b71000000000000000000000000000000000000000000000000000000005f52601160045260245ffd5b5f6117a582611148565b91506117b083611148565b92508282019050808211156117c8576117c761176e565b5b92915050565b7f4e487b71000000000000000000000000000000000000000000000000000000005f52602260045260245ffd5b5f600282049050600182168061181257607f821691505b602082108103611825576118246117ce565b5b50919050565b5f82825260208201905092915050565b7f7469746c650000000000000000000000000000000000000000000000000000005f82015250565b5f61186f60058361182b565b915061187a8261183b565b602082019050919050565b5f6020820190508181035f83015261189c81611863565b9050919050565b7f6172746973744e616d65000000000000000000000000000000000000000000005f82015250565b5f6118d7600a8361182b565b91506118e2826118a3565b602082019050919050565b5f6020820190508181035f830152611904816118cb565b9050919050565b7f69706673434944000000000000000000000000000000000000000000000000005f82015250565b5f61193f60078361182b565b915061194a8261190b565b602082019050919050565b5f6020820190508181035f83015261196c81611933565b9050919050565b7f636f7665724172744349440000000000000000000000000000000000000000005f82015250565b5f6119a7600b8361182b565b91506119b282611973565b602082019050919050565b5f6020820190508181035f8301526119d48161199b565b9050919050565b5f6119e582611148565b91507fffffffffffffffffffffffffffffffffffffffffffffffffffffffffffffffff8203611a1757611a1661176e565b5b600182019050919050565b7f4e487b71000000000000000000000000000000000000000000000000000000005f52604160045260245ffd5b5f819050815f5260205f209050919050565b5f6020601f8301049050919050565b5f82821b905092915050565b5f60088302611aab7fffffffffffffffffffffffffffffffffffffffffffffffffffffffffffffffff82611a70565b611ab58683611a70565b95508019841693508086168417925050509392505050565b5f819050919050565b5f611af0611aeb611ae684611148565b611acd565b611148565b9050919050565b5f819050919050565b611b0983611ad6565b611b1d611b1582611af7565b848454611a7c565b825550505050565b5f5f905090565b611b34611b25565b611b3f818484611b00565b505050565b5b81811015611b6257611b575f82611b2c565b600181019050611b45565b5050565b601f821115611ba757611b7881611a4f565b611b8184611a61565b81016020851015611b90578190505b611ba4611b9c85611a61565b830182611b44565b50505b505050565b5f82821c905092915050565b5f611bc75f1984600802611bac565b1980831691505092915050565b5f611bdf8383611bb8565b9150826002028217905092915050565b611bf88261128b565b67ffffffffffffffff811115611c1157611c10611a22565b5b611c1b82546117fb565b611c26828285611b66565b5f60209050601f831160018114611c57575f8415611c45578287015190505b611c4f8582611bd4565b865550611cb6565b601f198416611c6586611a4f565b5f5b82811015611c8c57848901518255600182019150602085019450602081019050611c67565b86831015611ca95784890151611ca5601f891682611bb8565b8355505b6001600288020188555050505b505050505050565b828183375f83830152505050565b5f611cd7838561182b565b9350611ce4838584611cbe565b611ced836112b3565b840190509392505050565b5f60a0820190508181035f830152611d11818b8d611ccc565b90508181036020830152611d2681898b611ccc565b90508181036040830152611d3b818789611ccc565b90508181036060830152611d50818587611ccc565b9050611d5f6080830184611254565b9a9950505050505050505050565b7f4e487b71000000000000000000000000000000000000000000000000000000005f52603260045260245ffdfea26469706673582212205030442efff8120ee819d1c529a673c5c8514dd246757c1e0abc2fb772db51b364736f6c634300081c0033",
  "linkReferences": {},
  "deployedLinkReferences": {},
  "immutableReferences": {},
  "inputSourceName": "project/contracts/MusicRegistry.sol",
  "buildInfoId": "solc-0_8_28-94f9be9430c85c5d2472738fead10f3769a8f8b1"
}