{
  "_format": "hh3-artifact-1",
  "contractName": "MusicNFTMarketplace",
  "sourceName": "contracts/MusicNFTMarketplace.sol",
  "abi": [
    {
      "inputs": [
        {
          "internalType": "uint256",
          "name": "_royaltyFee",
          "type": "uint256"
        },
        {
          "internalType": "address",
          "name": "_artist",
          "type": "address"
        },
        {
          "internalType": "uint256[]",
          "name": "_prices",
          "type": "uint256[]"
        }
      ],
      "stateMutability": "payable",
      "type": "constructor"
    },
    {
      "inputs": [
        {
          "internalType": "address",
          "name": "sender",
          "type": "address"
        },
        {
          "internalType": "uint256",
          "name": "tokenId",
          "type": "uint256"
        },
        {
          "internalType": "address",
          "name": "owner",
          "type": "address"
        }
      ],
      "name": "ERC721IncorrectOwner",
      "type": "error"
    },
    {
      "inputs": [
        {
          "internalType": "address",
          "name": "operator",
          "type": "address"
        },
        {
          "internalType": "uint256",
          "name": "tokenId",
          "type": "uint256"
        }
      ],
      "name": "ERC721InsufficientApproval",
      "type": "error"
    },
    {
      "inputs": [
        {
          "internalType": "address",
          "name": "approver",
          "type": "address"
        }
      ],
      "name": "ERC721InvalidApprover",
      "type": "error"
    },
    {
      "inputs": [
        {
          "internalType": "address",
          "name": "operator",
          "type": "address"
        }
      ],
      "name": "ERC721InvalidOperator",
      "type": "error"
    },
    {
      "inputs": [
        {
          "internalType": "address",
          "name": "owner",
          "type": "address"
        }
      ],
      "name": "ERC721InvalidOwner",
      "type": "error"
    },
    {
      "inputs": [
        {
          "internalType": "address",
          "name": "receiver",
          "type": "address"
        }
      ],
      "name": "ERC721InvalidReceiver",
      "type": "error"
    },
    {
      "inputs": [
        {
          "internalType": "address",
          "name": "sender",
          "type": "address"
        }
      ],
      "name": "ERC721InvalidSender",
      "type": "error"
    },
    {
      "inputs": [
        {
          "internalType": "uint256",
          "name": "tokenId",
          "type": "uint256"
        }
      ],
      "name": "ERC721NonexistentToken",
      "type": "error"
    },
    {
      "inputs": [
        {
          "internalType": "address",
          "name": "owner",
          "type": "address"
        }
      ],
      "name": "OwnableInvalidOwner",
      "type": "error"
    },
    {
      "inputs": [
        {
          "internalType": "address",
          "name": "account",
          "type": "address"
        }
      ],
      "name": "OwnableUnauthorizedAccount",
      "type": "error"
    },
    {
      "inputs": [],
      "name": "ReentrancyGuardReentrantCall",
      "type": "error"
    },
    {
      "anonymous": false,
      "inputs": [
        {
          "indexed": true,
          "internalType": "address",
          "name": "owner",
          "type": "address"
        },
        {
          "indexed": true,
          "internalType": "address",
          "name": "approved",
          "type": "address"
        },
        {
          "indexed": true,
          "internalType": "uint256",
          "name": "tokenId",
          "type": "uint256"
        }
      ],
      "name": "Approval",
      "type": "event"
    },
    {
      "anonymous": false,
      "inputs": [
        {
          "indexed": true,
          "internalType": "address",
          "name": "owner",
          "type": "address"
        },
        {
          "indexed": true,
          "internalType": "address",
          "name": "operator",
          "type": "address"
        },
        {
          "indexed": false,
          "internalType": "bool",
          "name": "approved",
          "type": "bool"
        }
      ],
      "name": "ApprovalForAll",
      "type": "event"
    },
    {
      "anonymous": false,
      "inputs": [
        {
          "indexed": false,
          "internalType": "uint256",
          "name": "_fromTokenId",
          "type": "uint256"
        },
        {
          "indexed": false,
          "internalType": "uint256",
          "name": "_toTokenId",
          "type": "uint256"
        }
      ],
      "name": "BatchMetadataUpdate",
      "type": "event"
    },
    {
      "anonymous": false,
      "inputs": [
        {
          "indexed": true,
          "internalType": "uint256",
          "name": "tokenId",
          "type": "uint256"
        },
        {
          "indexed": true,
          "internalType": "address",
          "name": "seller",
          "type": "address"
        },
        {
          "indexed": false,
          "internalType": "address",
          "name": "buyer",
          "type": "address"
        },
        {
          "indexed": false,
          "internalType": "uint256",
          "name": "price",
          "type": "uint256"
        }
      ],
      "name": "MarketItemBought",
      "type": "event"
    },
    {
      "anonymous": false,
      "inputs": [
        {
          "indexed": true,
          "internalType": "uint256",
          "name": "tokenId",
          "type": "uint256"
        },
        {
          "indexed": true,
          "internalType": "address",
          "name": "seller",
          "type": "address"
        },
        {
          "indexed": false,
          "internalType": "uint256",
          "name": "price",
          "type": "uint256"
        }
      ],
      "name": "MarketItemRelisted",
      "type": "event"
    },
    {
      "anonymous": false,
      "inputs": [
        {
          "indexed": false,
          "internalType": "uint256",
          "name": "_tokenId",
          "type": "uint256"
        }
      ],
      "name": "MetadataUpdate",
      "type": "event"
    },
    {
      "anonymous": false,
      "inputs": [
        {
          "indexed": true,
          "internalType": "address",
          "name": "previousOwner",
          "type": "address"
        },
        {
          "indexed": true,
          "internalType": "address",
          "name": "newOwner",
          "type": "address"
        }
      ],
      "name": "OwnershipTransferred",
      "type": "event"
    },
    {
      "anonymous": false,
      "inputs": [
        {
          "indexed": true,
          "internalType": "uint256",
          "name": "tokenId",
          "type": "uint256"
        },
        {
          "indexed": true,
          "internalType": "address",
          "name": "creator",
          "type": "address"
        },
        {
          "indexed": false,
          "internalType": "uint256",
          "name": "price",
          "type": "uint256"
        }
      ],
      "name": "TokenCreated",
      "type": "event"
    },
    {
      "anonymous": false,
      "inputs": [
        {
          "indexed": true,
          "internalType": "address",
          "name": "from",
          "type": "address"
        },
        {
          "indexed": true,
          "internalType": "address",
          "name": "to",
          "type": "address"
        },
        {
          "indexed": true,
          "internalType": "uint256",
          "name": "tokenId",
          "type": "uint256"
        }
      ],
      "name": "Transfer",
      "type": "event"
    },
    {
      "inputs": [
        {
          "internalType": "address",
          "name": "to",
          "type": "address"
        },
        {
          "internalType": "uint256",
          "name": "tokenId",
          "type": "uint256"
        }
      ],
      "name": "approve",
      "outputs": [],
      "stateMutability": "nonpayable",
      "type": "function"
    },
    {
      "inputs": [],
      "name": "artist",
      "outputs": [
        {
          "internalType": "address",
          "name": "",
          "type": "address"
        }
      ],
      "stateMutability": "view",
      "type": "function"
    },
    {
      "inputs": [
        {
          "internalType": "address",
          "name": "owner",
          "type": "address"
        }
      ],
      "name": "balanceOf",
      "outputs": [
        {
          "internalType": "uint256",
          "name": "",
          "type": "uint256"
        }
      ],
      "stateMutability": "view",
      "type": "function"
    },
    {
      "inputs": [
        {
          "internalType": "uint256",
          "name": "_tokenId",
          "type": "uint256"
        }
      ],
      "name": "buyToken",
      "outputs": [],
      "stateMutability": "payable",
      "type": "function"
    },
    {
      "inputs": [
        {
          "internalType": "string",
          "name": "_tokenURI",
          "type": "string"
        },
        {
          "internalType": "uint256",
          "name": "_price",
          "type": "uint256"
        }
      ],
      "name": "createToken",
      "outputs": [
        {
          "internalType": "uint256",
          "name": "",
          "type": "uint256"
        }
      ],
      "stateMutability": "payable",
      "type": "function"
    },
    {
      "inputs": [],
      "name": "getAllUnsoldTokens",
      "outputs": [
        {
          "components": [
            {
              "internalType": "uint256",
              "name": "tokenId",
              "type": "uint256"
            },
            {
              "internalType": "address payable",
              "name": "seller",
              "type": "address"
            },
            {
              "internalType": "uint256",
              "name": "price",
              "type": "uint256"
            },
            {
              "internalType": "bool",
              "name": "currentlyListed",
              "type": "bool"
            }
          ],
          "internalType": "struct MusicNFTMarketplace.MarketItem[]",
          "name": "",
          "type": "tuple[]"
        }
      ],
      "stateMutability": "view",
      "type": "function"
    },
    {
      "inputs": [
        {
          "internalType": "uint256",
          "name": "tokenId",
          "type": "uint256"
        }
      ],
      "name": "getApproved",
      "outputs": [
        {
          "internalType": "address",
          "name": "",
          "type": "address"
        }
      ],
      "stateMutability": "view",
      "type": "function"
    },
    {
      "inputs": [],
      "name": "getMyTokens",
      "outputs": [
        {
          "components": [
            {
              "internalType": "uint256",
              "name": "tokenId",
              "type": "uint256"
            },
            {
              "internalType": "address payable",
              "name": "seller",
              "type": "address"
            },
            {
              "internalType": "uint256",
              "name": "price",
              "type": "uint256"
            },
            {
              "internalType": "bool",
              "name": "currentlyListed",
              "type": "bool"
            }
          ],
          "internalType": "struct MusicNFTMarketplace.MarketItem[]",
          "name": "",
          "type": "tuple[]"
        }
      ],
      "stateMutability": "view",
      "type": "function"
    },
    {
      "inputs": [
        {
          "internalType": "address",
          "name": "owner",
          "type": "address"
        },
        {
          "internalType": "address",
          "name": "operator",
          "type": "address"
        }
      ],
      "name": "isApprovedForAll",
      "outputs": [
        {
          "internalType": "bool",
          "name": "",
          "type": "bool"
        }
      ],
      "stateMutability": "view",
      "type": "function"
    },
    {
      "inputs": [
        {
          "internalType": "uint256",
          "name": "",
          "type": "uint256"
        }
      ],
      "name": "marketItems",
      "outputs": [
        {
          "internalType": "uint256",
          "name": "tokenId",
          "type": "uint256"
        },
        {
          "internalType": "address payable",
          "name": "seller",
          "type": "address"
        },
        {
          "internalType": "uint256",
          "name": "price",
          "type": "uint256"
        },
        {
          "internalType": "bool",
          "name": "currentlyListed",
          "type": "bool"
        }
      ],
      "stateMutability": "view",
      "type": "function"
    },
    {
      "inputs": [],
      "name": "name",
      "outputs": [
        {
          "internalType": "string",
          "name": "",
          "type": "string"
        }
      ],
      "stateMutability": "view",
      "type": "function"
    },
    {
      "inputs": [],
      "name": "owner",
      "outputs": [
        {
          "internalType": "address",
          "name": "",
          "type": "address"
        }
      ],
      "stateMutability": "view",
      "type": "function"
    },
    {
      "inputs": [
        {
          "internalType": "uint256",
          "name": "tokenId",
          "type": "uint256"
        }
      ],
      "name": "ownerOf",
      "outputs": [
        {
          "internalType": "address",
          "name": "",
          "type": "address"
        }
      ],
      "stateMutability": "view",
      "type": "function"
    },
    {
      "inputs": [],
      "name": "renounceOwnership",
      "outputs": [],
      "stateMutability": "nonpayable",
      "type": "function"
    },
    {
      "inputs": [
        {
          "internalType": "uint256",
          "name": "_tokenId",
          "type": "uint256"
        },
        {
          "internalType": "uint256",
          "name": "_price",
          "type": "uint256"
        }
      ],
      "name": "resellToken",
      "outputs": [],
      "stateMutability": "payable",
      "type": "function"
    },
    {
      "inputs": [],
      "name": "royaltyFee",
      "outputs": [
        {
          "internalType": "uint256",
          "name": "",
          "type": "uint256"
        }
      ],
      "stateMutability": "view",
      "type": "function"
    },
    {
      "inputs": [
        {
          "internalType": "address",
          "name": "from",
          "type": "address"
        },
        {
          "internalType": "address",
          "name": "to",
          "type": "address"
        },
        {
          "internalType": "uint256",
          "name": "tokenId",
          "type": "uint256"
        }
      ],
      "name": "safeTransferFrom",
      "outputs": [],
      "stateMutability": "nonpayable",
      "type": "function"
    },
    {
      "inputs": [
        {
          "internalType": "address",
          "name": "from",
          "type": "address"
        },
        {
          "internalType": "address",
          "name": "to",
          "type": "address"
        },
        {
          "internalType": "uint256",
          "name": "tokenId",
          "type": "uint256"
        },
        {
          "internalType": "bytes",
          "name": "data",
          "type": "bytes"
        }
      ],
      "name": "safeTransferFrom",
      "outputs": [],
      "stateMutability": "nonpayable",
      "type": "function"
    },
    {
      "inputs": [
        {
          "internalType": "address",
          "name": "operator",
          "type": "address"
        },
        {
          "internalType": "bool",
          "name": "approved",
          "type": "bool"
        }
      ],
      "name": "setApprovalForAll",
      "outputs": [],
      "stateMutability": "nonpayable",
      "type": "function"
    },
    {
      "inputs": [
        {
          "internalType": "bytes4",
          "name": "interfaceId",
          "type": "bytes4"
        }
      ],
      "name": "supportsInterface",
      "outputs": [
        {
          "internalType": "bool",
          "name": "",
          "type": "bool"
        }
      ],
      "stateMutability": "view",
      "type": "function"
    },
    {
      "inputs": [],
      "name": "symbol",
      "outputs": [
        {
          "internalType": "string",
          "name": "",
          "type": "string"
        }
      ],
      "stateMutability": "view",
      "type": "function"
    },
    {
      "inputs": [
        {
          "internalType": "uint256",
          "name": "tokenId",
          "type": "uint256"
        }
      ],
      "name": "tokenURI",
      "outputs": [
        {
          "internalType": "string",
          "name": "",
          "type": "string"
        }
      ],
      "stateMutability": "view",
      "type": "function"
    },
    {
      "inputs": [],
      "name": "totalItems",
      "outputs": [
        {
          "internalType": "uint256",
          "name": "",
          "type": "uint256"
        }
      ],
      "stateMutability": "view",
      "type": "function"
    },
    {
      "inputs": [
        {
          "internalType": "address",
          "name": "from",
          "type": "address"
        },
        {
          "internalType": "address",
          "name": "to",
          "type": "address"
        },
        {
          "internalType": "uint256",
          "name": "tokenId",
          "type": "uint256"
        }
      ],
      "name": "transferFrom",
      "outputs": [],
      "stateMutability": "nonpayable",
      "type": "function"
    },
    {
      "inputs": [
        {
          "internalType": "address",
          "name": "newOwner",
          "type": "address"
        }
      ],
      "name": "transferOwnership",
      "outputs": [],
      "stateMutability": "nonpayable",
      "type": "function"
    }
  ],
  "bytecode": "0x6080604052604051614e6c380380614e6c83398181016040528101906100259190610e28565b336040518060400160405280601481526020017f42656174436861696e20436f6c6c656374696f6e0000000000000000000000008152506040518060400160405280600481526020017f4245415400000000000000000000000000000000000000000000000000000000815250815f90816100a0919061109b565b5080600190816100b0919061109b565b5050505f73ffffffffffffffffffffffffffffffffffffffff168173ffffffffffffffffffffffffffffffffffffffff1603610123575f6040517f1e4fbdf700000000000000000000000000000000000000000000000000000000815260040161011a9190611179565b60405180910390fd5b6101328161023a60201b60201c565b5060016101516101466102fd60201b60201c565b61032660201b60201c565b5f01819055503483825161016591906111bf565b11156101a6576040517f08c379a000000000000000000000000000000000000000000000000000000000815260040161019d90611280565b60405180910390fd5b826008819055508160095f6101000a81548173ffffffffffffffffffffffffffffffffffffffff021916908373ffffffffffffffffffffffffffffffffffffffff1602179055505f5f90505b8151811015610231576102248282815181106102115761021061129e565b5b602002602001015161032f60201b60201c565b80806001019150506101f2565b50505050611361565b5f60075f9054906101000a900473ffffffffffffffffffffffffffffffffffffffff1690508160075f6101000a81548173ffffffffffffffffffffffffffffffffffffffff021916908373ffffffffffffffffffffffffffffffffffffffff1602179055508173ffffffffffffffffffffffffffffffffffffffff168173ffffffffffffffffffffffffffffffffffffffff167f8be0079c531659141344cd1fd0a4f28419497f9722a3daafe3b4186f6b6457e060405160405180910390a35050565b5f7f9b779b17422d0df92223018b32b4d1fa46e071723d6817e2486d003becc55f005f1b905090565b5f819050919050565b5f600a5f815480929190610342906112cb565b919050559050610358308261043860201b60201c565b60405180608001604052808281526020013373ffffffffffffffffffffffffffffffffffffffff16815260200183815260200160011515815250600b5f8381526020019081526020015f205f820151815f01556020820151816001015f6101000a81548173ffffffffffffffffffffffffffffffffffffffff021916908373ffffffffffffffffffffffffffffffffffffffff160217905550604082015181600201556060820151816003015f6101000a81548160ff021916908315150217905550905050600c5f81548092919061042f906112cb565b91905055505050565b5f73ffffffffffffffffffffffffffffffffffffffff168273ffffffffffffffffffffffffffffffffffffffff16036104a8575f6040517f64a0ae9200000000000000000000000000000000000000000000000000000000815260040161049f9190611179565b60405180910390fd5b5f6104ba83835f61053160201b60201c565b90505f73ffffffffffffffffffffffffffffffffffffffff168173ffffffffffffffffffffffffffffffffffffffff161461052c575f6040517f73c6ac6e0000000000000000000000000000000000000000000000000000000081526004016105239190611179565b60405180910390fd5b505050565b5f5f6105428461074e60201b60201c565b90505f73ffffffffffffffffffffffffffffffffffffffff168373ffffffffffffffffffffffffffffffffffffffff16146105895761058881848661078760201b60201c565b5b5f73ffffffffffffffffffffffffffffffffffffffff168173ffffffffffffffffffffffffffffffffffffffff161461061a576105ce5f855f5f61085060201b60201c565b600160035f8373ffffffffffffffffffffffffffffffffffffffff1673ffffffffffffffffffffffffffffffffffffffff1681526020019081526020015f205f82825403925050819055505b5f73ffffffffffffffffffffffffffffffffffffffff168573ffffffffffffffffffffffffffffffffffffffff161461069957600160035f8773ffffffffffffffffffffffffffffffffffffffff1673ffffffffffffffffffffffffffffffffffffffff1681526020019081526020015f205f82825401925050819055505b8460025f8681526020019081526020015f205f6101000a81548173ffffffffffffffffffffffffffffffffffffffff021916908373ffffffffffffffffffffffffffffffffffffffff160217905550838573ffffffffffffffffffffffffffffffffffffffff168273ffffffffffffffffffffffffffffffffffffffff167fddf252ad1be2c89b69c2b068fc378daa952ba7f163c4a11628f55a4df523b3ef60405160405180910390a4809150509392505050565b5f60025f8381526020019081526020015f205f9054906101000a900473ffffffffffffffffffffffffffffffffffffffff169050919050565b610798838383610a1b60201b60201c565b61084b575f73ffffffffffffffffffffffffffffffffffffffff168373ffffffffffffffffffffffffffffffffffffffff160361080c57806040517f7e2732890000000000000000000000000000000000000000000000000000000081526004016108039190611321565b60405180910390fd5b81816040517f177e802f00000000000000000000000000000000000000000000000000000000815260040161084292919061133a565b60405180910390fd5b505050565b808061088857505f73ffffffffffffffffffffffffffffffffffffffff168273ffffffffffffffffffffffffffffffffffffffff1614155b156109c6575f61089d84610ae760201b60201c565b90505f73ffffffffffffffffffffffffffffffffffffffff168373ffffffffffffffffffffffffffffffffffffffff161415801561090757508273ffffffffffffffffffffffffffffffffffffffff168173ffffffffffffffffffffffffffffffffffffffff1614155b8015610920575061091e8184610b7360201b60201c565b155b1561096257826040517fa9fbf51f0000000000000000000000000000000000000000000000000000000081526004016109599190611179565b60405180910390fd5b81156109c457838573ffffffffffffffffffffffffffffffffffffffff168273ffffffffffffffffffffffffffffffffffffffff167f8c5be1e5ebec7d5bd14f71427d1e84f3dd0314c0f7b2291e5b200ac8c7c3b92560405160405180910390a45b505b8360045f8581526020019081526020015f205f6101000a81548173ffffffffffffffffffffffffffffffffffffffff021916908373ffffffffffffffffffffffffffffffffffffffff16021790555050505050565b5f5f73ffffffffffffffffffffffffffffffffffffffff168373ffffffffffffffffffffffffffffffffffffffff1614158015610ade57508273ffffffffffffffffffffffffffffffffffffffff168473ffffffffffffffffffffffffffffffffffffffff161480610a995750610a988484610b7360201b60201c565b5b80610add57508273ffffffffffffffffffffffffffffffffffffffff16610ac583610c0160201b60201c565b73ffffffffffffffffffffffffffffffffffffffff16145b5b90509392505050565b5f5f610af88361074e60201b60201c565b90505f73ffffffffffffffffffffffffffffffffffffffff168173ffffffffffffffffffffffffffffffffffffffff1603610b6a57826040517f7e273289000000000000000000000000000000000000000000000000000000008152600401610b619190611321565b60405180910390fd5b80915050919050565b5f60055f8473ffffffffffffffffffffffffffffffffffffffff1673ffffffffffffffffffffffffffffffffffffffff1681526020019081526020015f205f8373ffffffffffffffffffffffffffffffffffffffff1673ffffffffffffffffffffffffffffffffffffffff1681526020019081526020015f205f9054906101000a900460ff16905092915050565b5f60045f8381526020019081526020015f205f9054906101000a900473ffffffffffffffffffffffffffffffffffffffff169050919050565b5f604051905090565b5f5ffd5b5f5ffd5b5f819050919050565b610c5d81610c4b565b8114610c67575f5ffd5b50565b5f81519050610c7881610c54565b92915050565b5f73ffffffffffffffffffffffffffffffffffffffff82169050919050565b5f610ca782610c7e565b9050919050565b610cb781610c9d565b8114610cc1575f5ffd5b50565b5f81519050610cd281610cae565b92915050565b5f5ffd5b5f601f19601f8301169050919050565b7f4e487b71000000000000000000000000000000000000000000000000000000005f52604160045260245ffd5b610d2282610cdc565b810181811067ffffffffffffffff82111715610d4157610d40610cec565b5b80604052505050565b5f610d53610c3a565b9050610d5f8282610d19565b919050565b5f67ffffffffffffffff821115610d7e57610d7d610cec565b5b602082029050602081019050919050565b5f5ffd5b5f610da5610da084610d64565b610d4a565b90508083825260208201905060208402830185811115610dc857610dc7610d8f565b5b835b81811015610df15780610ddd8882610c6a565b845260208401935050602081019050610dca565b5050509392505050565b5f82601f830112610e0f57610e0e610cd8565b5b8151610e1f848260208601610d93565b91505092915050565b5f5f5f60608486031215610e3f57610e3e610c43565b5b5f610e4c86828701610c6a565b9350506020610e5d86828701610cc4565b925050604084015167ffffffffffffffff811115610e7e57610e7d610c47565b5b610e8a86828701610dfb565b9150509250925092565b5f81519050919050565b7f4e487b71000000000000000000000000000000000000000000000000000000005f52602260045260245ffd5b5f6002820490506001821680610ee257607f821691505b602082108103610ef557610ef4610e9e565b5b50919050565b5f819050815f5260205f209050919050565b5f6020601f8301049050919050565b5f82821b905092915050565b5f60088302610f577fffffffffffffffffffffffffffffffffffffffffffffffffffffffffffffffff82610f1c565b610f618683610f1c565b95508019841693508086168417925050509392505050565b5f819050919050565b5f610f9c610f97610f9284610c4b565b610f79565b610c4b565b9050919050565b5f819050919050565b610fb583610f82565b610fc9610fc182610fa3565b848454610f28565b825550505050565b5f5f905090565b610fe0610fd1565b610feb818484610fac565b505050565b5b8181101561100e576110035f82610fd8565b600181019050610ff1565b5050565b601f8211156110535761102481610efb565b61102d84610f0d565b8101602085101561103c578190505b61105061104885610f0d565b830182610ff0565b50505b505050565b5f82821c905092915050565b5f6110735f1984600802611058565b1980831691505092915050565b5f61108b8383611064565b9150826002028217905092915050565b6110a482610e94565b67ffffffffffffffff8111156110bd576110bc610cec565b5b6110c78254610ecb565b6110d2828285611012565b5f60209050601f831160018114611103575f84156110f1578287015190505b6110fb8582611080565b865550611162565b601f19841661111186610efb565b5f5b8281101561113857848901518255600182019150602085019450602081019050611113565b868310156111555784890151611151601f891682611064565b8355505b6001600288020188555050505b505050505050565b61117381610c9d565b82525050565b5f60208201905061118c5f83018461116a565b92915050565b7f4e487b71000000000000000000000000000000000000000000000000000000005f52601160045260245ffd5b5f6111c982610c4b565b91506111d483610c4b565b92508282026111e281610c4b565b915082820484148315176111f9576111f8611192565b5b5092915050565b5f82825260208201905092915050565b7f496e73756666696369656e742045544820666f7220696e697469616c20726f795f8201527f616c746965730000000000000000000000000000000000000000000000000000602082015250565b5f61126a602683611200565b915061127582611210565b604082019050919050565b5f6020820190508181035f8301526112978161125e565b9050919050565b7f4e487b71000000000000000000000000000000000000000000000000000000005f52603260045260245ffd5b5f6112d582610c4b565b91507fffffffffffffffffffffffffffffffffffffffffffffffffffffffffffffffff820361130757611306611192565b5b600182019050919050565b61131b81610c4b565b82525050565b5f6020820190506113345f830184611312565b92915050565b5f60408201905061134d5f83018561116a565b61135a6020830184611312565b9392505050565b613afe8061136e5f395ff3fe608060405260043610610165575f3560e01c806370a08231116100d0578063a22cb46511610089578063c87b56dd11610063578063c87b56dd14610512578063e219fc751461054e578063e985e9c51461056a578063f2fde38b146105a657610165565b8063a22cb46514610498578063b88d4fde146104c0578063b8997a97146104e857610165565b806370a0823114610398578063715018a6146103d457806372b3b620146103ea578063767dd0761461041a5780638da5cb5b1461044457806395d89b411461046e57610165565b80632d296bf1116101225780632d296bf11461028557806342842e0e146102a157806343bc1612146102c957806351f28e14146102f35780635b3b136a146103325780636352211e1461035c57610165565b806301ffc9a71461016957806306fdde03146101a5578063081812fc146101cf578063095ea7b31461020b57806323b872dd146102335780632799276d1461025b575b5f5ffd5b348015610174575f5ffd5b5061018f600480360381019061018a9190612a1f565b6105ce565b60405161019c9190612a64565b60405180910390f35b3480156101b0575f5ffd5b506101b961062e565b6040516101c69190612aed565b60405180910390f35b3480156101da575f5ffd5b506101f560048036038101906101f09190612b40565b6106bd565b6040516102029190612baa565b60405180910390f35b348015610216575f5ffd5b50610231600480360381019061022c9190612bed565b6106d8565b005b34801561023e575f5ffd5b5061025960048036038101906102549190612c2b565b6106ee565b005b348015610266575f5ffd5b5061026f6107ed565b60405161027c9190612c8a565b60405180910390f35b61029f600480360381019061029a9190612b40565b6107f3565b005b3480156102ac575f5ffd5b506102c760048036038101906102c29190612c2b565b610af8565b005b3480156102d4575f5ffd5b506102dd610b17565b6040516102ea9190612baa565b60405180910390f35b3480156102fe575f5ffd5b5061031960048036038101906103149190612b40565b610b3c565b6040516103299493929190612cc3565b60405180910390f35b34801561033d575f5ffd5b50610346610b93565b6040516103539190612e2e565b60405180910390f35b348015610367575f5ffd5b50610382600480360381019061037d9190612b40565b610d28565b60405161038f9190612baa565b60405180910390f35b3480156103a3575f5ffd5b506103be60048036038101906103b99190612e4e565b610d39565b6040516103cb9190612c8a565b60405180910390f35b3480156103df575f5ffd5b506103e8610def565b005b61040460048036038101906103ff9190612fa5565b610e02565b6040516104119190612c8a565b60405180910390f35b348015610425575f5ffd5b5061042e610ffc565b60405161043b9190612e2e565b60405180910390f35b34801561044f575f5ffd5b506104586111c6565b6040516104659190612baa565b60405180910390f35b348015610479575f5ffd5b506104826111ee565b60405161048f9190612aed565b60405180910390f35b3480156104a3575f5ffd5b506104be60048036038101906104b99190613029565b61127e565b005b3480156104cb575f5ffd5b506104e660048036038101906104e19190613105565b611294565b005b3480156104f3575f5ffd5b506104fc6112b9565b6040516105099190612c8a565b60405180910390f35b34801561051d575f5ffd5b5061053860048036038101906105339190612b40565b6112bf565b6040516105459190612aed565b60405180910390f35b61056860048036038101906105639190613185565b61133b565b005b348015610575575f5ffd5b50610590600480360381019061058b91906131c3565b61153c565b60405161059d9190612a64565b60405180910390f35b3480156105b1575f5ffd5b506105cc60048036038101906105c79190612e4e565b6115ca565b005b5f634906490660e01b7bffffffffffffffffffffffffffffffffffffffffffffffffffffffff1916827bffffffffffffffffffffffffffffffffffffffffffffffffffffffff1916148061062757506106268261164e565b5b9050919050565b60605f805461063c9061322e565b80601f01602080910402602001604051908101604052809291908181526020018280546106689061322e565b80156106b35780601f1061068a576101008083540402835291602001916106b3565b820191905f5260205f20905b81548152906001019060200180831161069657829003601f168201915b5050505050905090565b5f6106c78261172f565b506106d1826117b5565b9050919050565b6106ea82826106e56117ee565b6117f5565b5050565b5f73ffffffffffffffffffffffffffffffffffffffff168273ffffffffffffffffffffffffffffffffffffffff160361075e575f6040517f64a0ae920000000000000000000000000000000000000000000000000000000081526004016107559190612baa565b60405180910390fd5b5f610771838361076c6117ee565b611807565b90508373ffffffffffffffffffffffffffffffffffffffff168173ffffffffffffffffffffffffffffffffffffffff16146107e7578382826040517f64283d7b0000000000000000000000000000000000000000000000000000000081526004016107de9392919061325e565b60405180910390fd5b50505050565b600c5481565b6107fb611a12565b5f600b5f8381526020019081526020015f206002015490505f600b5f8481526020019081526020015f206001015f9054906101000a900473ffffffffffffffffffffffffffffffffffffffff169050600b5f8481526020019081526020015f206003015f9054906101000a900460ff166108aa576040517f08c379a00000000000000000000000000000000000000000000000000000000081526004016108a1906132dd565b60405180910390fd5b8134146108ec576040517f08c379a00000000000000000000000000000000000000000000000000000000081526004016108e390613345565b60405180910390fd5b3373ffffffffffffffffffffffffffffffffffffffff168173ffffffffffffffffffffffffffffffffffffffff160361095a576040517f08c379a0000000000000000000000000000000000000000000000000000000008152600401610951906133ad565b60405180910390fd5b5f600b5f8581526020019081526020015f206003015f6101000a81548160ff0219169083151502179055505f600b5f8581526020019081526020015f206001015f6101000a81548173ffffffffffffffffffffffffffffffffffffffff021916908373ffffffffffffffffffffffffffffffffffffffff1602179055506109e2303385611a34565b60095f9054906101000a900473ffffffffffffffffffffffffffffffffffffffff1673ffffffffffffffffffffffffffffffffffffffff166108fc60085490811502906040515f60405180830381858888f19350505050158015610a48573d5f5f3e3d5ffd5b508073ffffffffffffffffffffffffffffffffffffffff166108fc60085434610a7191906133f8565b90811502906040515f60405180830381858888f19350505050158015610a99573d5f5f3e3d5ffd5b508073ffffffffffffffffffffffffffffffffffffffff16837fd356b8423ef89ccba8e4f1dbeccc60b41825fd97d432f2e6a6dbd11ae6ecec113385604051610ae392919061342b565b60405180910390a35050610af5611b9c565b50565b610b1283838360405180602001604052805f815250611294565b505050565b60095f9054906101000a900473ffffffffffffffffffffffffffffffffffffffff1681565b600b602052805f5260405f205f91509050805f015490806001015f9054906101000a900473ffffffffffffffffffffffffffffffffffffffff1690806002015490806003015f9054906101000a900460ff16905084565b60605f610b9f33610d39565b90505f8167ffffffffffffffff811115610bbc57610bbb612e81565b5b604051908082528060200260200182016040528015610bf557816020015b610be261297d565b815260200190600190039081610bda5790505b5090505f5f90505f5f90505b600a54811015610d1e573373ffffffffffffffffffffffffffffffffffffffff16610c2b82610d28565b73ffffffffffffffffffffffffffffffffffffffff1603610d1157600b5f8281526020019081526020015f206040518060800160405290815f8201548152602001600182015f9054906101000a900473ffffffffffffffffffffffffffffffffffffffff1673ffffffffffffffffffffffffffffffffffffffff1673ffffffffffffffffffffffffffffffffffffffff16815260200160028201548152602001600382015f9054906101000a900460ff161515151581525050838381518110610cf757610cf6613452565b5b60200260200101819052508180610d0d9061347f565b9250505b8080600101915050610c01565b5081935050505090565b5f610d328261172f565b9050919050565b5f5f73ffffffffffffffffffffffffffffffffffffffff168273ffffffffffffffffffffffffffffffffffffffff1603610daa575f6040517f89c62b64000000000000000000000000000000000000000000000000000000008152600401610da19190612baa565b60405180910390fd5b60035f8373ffffffffffffffffffffffffffffffffffffffff1673ffffffffffffffffffffffffffffffffffffffff1681526020019081526020015f20549050919050565b610df7611bb6565b610e005f611c3d565b565b5f610e0b611a12565b600854341015610e50576040517f08c379a0000000000000000000000000000000000000000000000000000000008152600401610e4790613536565b60405180910390fd5b5f8211610e92576040517f08c379a0000000000000000000000000000000000000000000000000000000008152600401610e899061359e565b60405180910390fd5b5f600a5f815480929190610ea59061347f565b919050559050610eb53082611d00565b610ebf8185611df3565b60405180608001604052808281526020013373ffffffffffffffffffffffffffffffffffffffff16815260200184815260200160011515815250600b5f8381526020019081526020015f205f820151815f01556020820151816001015f6101000a81548173ffffffffffffffffffffffffffffffffffffffff021916908373ffffffffffffffffffffffffffffffffffffffff160217905550604082015181600201556060820151816003015f6101000a81548160ff021916908315150217905550905050600c5f815480929190610f969061347f565b91905055503373ffffffffffffffffffffffffffffffffffffffff16817fe7a993e1f6f7de49885a54c425ea794d64d9d5bec32f16942e9e9a9c1a76aca185604051610fe29190612c8a565b60405180910390a380915050610ff6611b9c565b92915050565b60605f5f90505f5f90505b600a5481101561105357600b5f8281526020019081526020015f206003015f9054906101000a900460ff16156110465781806110429061347f565b9250505b8080600101915050611007565b505f8167ffffffffffffffff81111561106f5761106e612e81565b5b6040519080825280602002602001820160405280156110a857816020015b61109561297d565b81526020019060019003908161108d5790505b5090505f5f90505f5f90505b600a548110156111bc57600b5f8281526020019081526020015f206003015f9054906101000a900460ff16156111af57600b5f8281526020019081526020015f206040518060800160405290815f8201548152602001600182015f9054906101000a900473ffffffffffffffffffffffffffffffffffffffff1673ffffffffffffffffffffffffffffffffffffffff1673ffffffffffffffffffffffffffffffffffffffff16815260200160028201548152602001600382015f9054906101000a900460ff16151515158152505083838151811061119557611194613452565b5b602002602001018190525081806111ab9061347f565b9250505b80806001019150506110b4565b5081935050505090565b5f60075f9054906101000a900473ffffffffffffffffffffffffffffffffffffffff16905090565b6060600180546111fd9061322e565b80601f01602080910402602001604051908101604052809291908181526020018280546112299061322e565b80156112745780601f1061124b57610100808354040283529160200191611274565b820191905f5260205f20905b81548152906001019060200180831161125757829003601f168201915b5050505050905090565b6112906112896117ee565b8383611e4d565b5050565b61129f8484846106ee565b6112b36112aa6117ee565b85858585612026565b50505050565b60085481565b60606112ca8261172f565b505f6112d46121d2565b90505f6112e0846121e8565b90505f8251036112f4578092505050611336565b5f815111156113285781816040516020016113109291906135f6565b60405160208183030381529060405292505050611336565b61133184612289565b925050505b919050565b611343611a12565b6008543414611387576040517f08c379a000000000000000000000000000000000000000000000000000000000815260040161137e90613663565b60405180910390fd5b5f81116113c9576040517f08c379a00000000000000000000000000000000000000000000000000000000081526004016113c0906136cb565b60405180910390fd5b3373ffffffffffffffffffffffffffffffffffffffff166113e983610d28565b73ffffffffffffffffffffffffffffffffffffffff161461143f576040517f08c379a000000000000000000000000000000000000000000000000000000000815260040161143690613733565b60405180910390fd5b80600b5f8481526020019081526020015f206002018190555033600b5f8481526020019081526020015f206001015f6101000a81548173ffffffffffffffffffffffffffffffffffffffff021916908373ffffffffffffffffffffffffffffffffffffffff1602179055506001600b5f8481526020019081526020015f206003015f6101000a81548160ff0219169083151502179055506114e1333084611a34565b3373ffffffffffffffffffffffffffffffffffffffff16827fb2ba12d2566848b13548a3741edb565b69d3cbce7796959cd67431610207eb13836040516115289190612c8a565b60405180910390a3611538611b9c565b5050565b5f60055f8473ffffffffffffffffffffffffffffffffffffffff1673ffffffffffffffffffffffffffffffffffffffff1681526020019081526020015f205f8373ffffffffffffffffffffffffffffffffffffffff1673ffffffffffffffffffffffffffffffffffffffff1681526020019081526020015f205f9054906101000a900460ff16905092915050565b6115d2611bb6565b5f73ffffffffffffffffffffffffffffffffffffffff168173ffffffffffffffffffffffffffffffffffffffff1603611642575f6040517f1e4fbdf70000000000000000000000000000000000000000000000000000000081526004016116399190612baa565b60405180910390fd5b61164b81611c3d565b50565b5f7f80ac58cd000000000000000000000000000000000000000000000000000000007bffffffffffffffffffffffffffffffffffffffffffffffffffffffff1916827bffffffffffffffffffffffffffffffffffffffffffffffffffffffff1916148061171857507f5b5e139f000000000000000000000000000000000000000000000000000000007bffffffffffffffffffffffffffffffffffffffffffffffffffffffff1916827bffffffffffffffffffffffffffffffffffffffffffffffffffffffff1916145b806117285750611727826122ef565b5b9050919050565b5f5f61173a83612358565b90505f73ffffffffffffffffffffffffffffffffffffffff168173ffffffffffffffffffffffffffffffffffffffff16036117ac57826040517f7e2732890000000000000000000000000000000000000000000000000000000081526004016117a39190612c8a565b60405180910390fd5b80915050919050565b5f60045f8381526020019081526020015f205f9054906101000a900473ffffffffffffffffffffffffffffffffffffffff169050919050565b5f33905090565b6118028383836001612391565b505050565b5f5f61181284612358565b90505f73ffffffffffffffffffffffffffffffffffffffff168373ffffffffffffffffffffffffffffffffffffffff161461185357611852818486612550565b5b5f73ffffffffffffffffffffffffffffffffffffffff168173ffffffffffffffffffffffffffffffffffffffff16146118de576118925f855f5f612391565b600160035f8373ffffffffffffffffffffffffffffffffffffffff1673ffffffffffffffffffffffffffffffffffffffff1681526020019081526020015f205f82825403925050819055505b5f73ffffffffffffffffffffffffffffffffffffffff168573ffffffffffffffffffffffffffffffffffffffff161461195d57600160035f8773ffffffffffffffffffffffffffffffffffffffff1673ffffffffffffffffffffffffffffffffffffffff1681526020019081526020015f205f82825401925050819055505b8460025f8681526020019081526020015f205f6101000a81548173ffffffffffffffffffffffffffffffffffffffff021916908373ffffffffffffffffffffffffffffffffffffffff160217905550838573ffffffffffffffffffffffffffffffffffffffff168273ffffffffffffffffffffffffffffffffffffffff167fddf252ad1be2c89b69c2b068fc378daa952ba7f163c4a11628f55a4df523b3ef60405160405180910390a4809150509392505050565b611a1a612613565b6002611a2c611a27612654565b61267d565b5f0181905550565b5f73ffffffffffffffffffffffffffffffffffffffff168273ffffffffffffffffffffffffffffffffffffffff1603611aa4575f6040517f64a0ae92000000000000000000000000000000000000000000000000000000008152600401611a9b9190612baa565b60405180910390fd5b5f611ab083835f611807565b90505f73ffffffffffffffffffffffffffffffffffffffff168173ffffffffffffffffffffffffffffffffffffffff1603611b2257816040517f7e273289000000000000000000000000000000000000000000000000000000008152600401611b199190612c8a565b60405180910390fd5b8373ffffffffffffffffffffffffffffffffffffffff168173ffffffffffffffffffffffffffffffffffffffff1614611b96578382826040517f64283d7b000000000000000000000000000000000000000000000000000000008152600401611b8d9392919061325e565b60405180910390fd5b50505050565b6001611bae611ba9612654565b61267d565b5f0181905550565b611bbe6117ee565b73ffffffffffffffffffffffffffffffffffffffff16611bdc6111c6565b73ffffffffffffffffffffffffffffffffffffffff1614611c3b57611bff6117ee565b6040517f118cdaa7000000000000000000000000000000000000000000000000000000008152600401611c329190612baa565b60405180910390fd5b565b5f60075f9054906101000a900473ffffffffffffffffffffffffffffffffffffffff1690508160075f6101000a81548173ffffffffffffffffffffffffffffffffffffffff021916908373ffffffffffffffffffffffffffffffffffffffff1602179055508173ffffffffffffffffffffffffffffffffffffffff168173ffffffffffffffffffffffffffffffffffffffff167f8be0079c531659141344cd1fd0a4f28419497f9722a3daafe3b4186f6b6457e060405160405180910390a35050565b5f73ffffffffffffffffffffffffffffffffffffffff168273ffffffffffffffffffffffffffffffffffffffff1603611d70575f6040517f64a0ae92000000000000000000000000000000000000000000000000000000008152600401611d679190612baa565b60405180910390fd5b5f611d7c83835f611807565b90505f73ffffffffffffffffffffffffffffffffffffffff168173ffffffffffffffffffffffffffffffffffffffff1614611dee575f6040517f73c6ac6e000000000000000000000000000000000000000000000000000000008152600401611de59190612baa565b60405180910390fd5b505050565b8060065f8481526020019081526020015f209081611e1191906138f1565b507ff8e1a15aba9398e019f0b49df1a4fde98ee17ae345cb5f6b5e2c27f5033e8ce782604051611e419190612c8a565b60405180910390a15050565b5f73ffffffffffffffffffffffffffffffffffffffff168373ffffffffffffffffffffffffffffffffffffffff1603611ebd575f6040517fa9fbf51f000000000000000000000000000000000000000000000000000000008152600401611eb49190612baa565b60405180910390fd5b5f73ffffffffffffffffffffffffffffffffffffffff168273ffffffffffffffffffffffffffffffffffffffff1603611f2d57816040517f5b08ba18000000000000000000000000000000000000000000000000000000008152600401611f249190612baa565b60405180910390fd5b8060055f8573ffffffffffffffffffffffffffffffffffffffff1673ffffffffffffffffffffffffffffffffffffffff1681526020019081526020015f205f8473ffffffffffffffffffffffffffffffffffffffff1673ffffffffffffffffffffffffffffffffffffffff1681526020019081526020015f205f6101000a81548160ff0219169083151502179055508173ffffffffffffffffffffffffffffffffffffffff168373ffffffffffffffffffffffffffffffffffffffff167f17307eab39ab6107e8899845ad3d59bd9653f200f220920489ca2b5937696c31836040516120199190612a64565b60405180910390a3505050565b5f8373ffffffffffffffffffffffffffffffffffffffff163b11156121cb578273ffffffffffffffffffffffffffffffffffffffff1663150b7a02868685856040518563ffffffff1660e01b81526004016120849493929190613a12565b6020604051808303815f875af19250505080156120bf57506040513d601f19601f820116820180604052508101906120bc9190613a70565b60015b612140573d805f81146120ed576040519150601f19603f3d011682016040523d82523d5f602084013e6120f2565b606091505b505f81510361213857836040517f64a0ae9200000000000000000000000000000000000000000000000000000000815260040161212f9190612baa565b60405180910390fd5b805160208201fd5b63150b7a0260e01b7bffffffffffffffffffffffffffffffffffffffffffffffffffffffff1916817bffffffffffffffffffffffffffffffffffffffffffffffffffffffff1916146121c957836040517f64a0ae920000000000000000000000000000000000000000000000000000000081526004016121c09190612baa565b60405180910390fd5b505b5050505050565b606060405180602001604052805f815250905090565b606060065f8381526020019081526020015f2080546122069061322e565b80601f01602080910402602001604051908101604052809291908181526020018280546122329061322e565b801561227d5780601f106122545761010080835404028352916020019161227d565b820191905f5260205f20905b81548152906001019060200180831161226057829003601f168201915b50505050509050919050565b60606122948261172f565b505f61229e6121d2565b90505f8151116122bc5760405180602001604052805f8152506122e7565b806122c684612686565b6040516020016122d79291906135f6565b6040516020818303038152906040525b915050919050565b5f7f01ffc9a7000000000000000000000000000000000000000000000000000000007bffffffffffffffffffffffffffffffffffffffffffffffffffffffff1916827bffffffffffffffffffffffffffffffffffffffffffffffffffffffff1916149050919050565b5f60025f8381526020019081526020015f205f9054906101000a900473ffffffffffffffffffffffffffffffffffffffff169050919050565b80806123c957505f73ffffffffffffffffffffffffffffffffffffffff168273ffffffffffffffffffffffffffffffffffffffff1614155b156124fb575f6123d88461172f565b90505f73ffffffffffffffffffffffffffffffffffffffff168373ffffffffffffffffffffffffffffffffffffffff161415801561244257508273ffffffffffffffffffffffffffffffffffffffff168173ffffffffffffffffffffffffffffffffffffffff1614155b80156124555750612453818461153c565b155b1561249757826040517fa9fbf51f00000000000000000000000000000000000000000000000000000000815260040161248e9190612baa565b60405180910390fd5b81156124f957838573ffffffffffffffffffffffffffffffffffffffff168273ffffffffffffffffffffffffffffffffffffffff167f8c5be1e5ebec7d5bd14f71427d1e84f3dd0314c0f7b2291e5b200ac8c7c3b92560405160405180910390a45b505b8360045f8581526020019081526020015f205f6101000a81548173ffffffffffffffffffffffffffffffffffffffff021916908373ffffffffffffffffffffffffffffffffffffffff16021790555050505050565b61255b838383612750565b61260e575f73ffffffffffffffffffffffffffffffffffffffff168373ffffffffffffffffffffffffffffffffffffffff16036125cf57806040517f7e2732890000000000000000000000000000000000000000000000000000000081526004016125c69190612c8a565b60405180910390fd5b81816040517f177e802f00000000000000000000000000000000000000000000000000000000815260040161260592919061342b565b60405180910390fd5b505050565b61261b612810565b15612652576040517f3ee5aeb500000000000000000000000000000000000000000000000000000000815260040160405180910390fd5b565b5f7f9b779b17422d0df92223018b32b4d1fa46e071723d6817e2486d003becc55f005f1b905090565b5f819050919050565b60605f60016126948461282c565b0190505f8167ffffffffffffffff8111156126b2576126b1612e81565b5b6040519080825280601f01601f1916602001820160405280156126e45781602001600182028036833780820191505090505b5090505f82602083010190505b600115612745578080600190039150507f3031323334353637383961626364656600000000000000000000000000000000600a86061a8153600a858161273a57612739613a9b565b5b0494505f85036126f1575b819350505050919050565b5f5f73ffffffffffffffffffffffffffffffffffffffff168373ffffffffffffffffffffffffffffffffffffffff161415801561280757508273ffffffffffffffffffffffffffffffffffffffff168473ffffffffffffffffffffffffffffffffffffffff1614806127c857506127c7848461153c565b5b8061280657508273ffffffffffffffffffffffffffffffffffffffff166127ee836117b5565b73ffffffffffffffffffffffffffffffffffffffff16145b5b90509392505050565b5f600261282361281e612654565b61267d565b5f015414905090565b5f5f5f90507a184f03e93ff9f4daa797ed6e38ed64bf6a1f0100000000000000008310612888577a184f03e93ff9f4daa797ed6e38ed64bf6a1f010000000000000000838161287e5761287d613a9b565b5b0492506040810190505b6d04ee2d6d415b85acef810000000083106128c5576d04ee2d6d415b85acef810000000083816128bb576128ba613a9b565b5b0492506020810190505b662386f26fc1000083106128f457662386f26fc1000083816128ea576128e9613a9b565b5b0492506010810190505b6305f5e100831061291d576305f5e100838161291357612912613a9b565b5b0492506008810190505b612710831061294257612710838161293857612937613a9b565b5b0492506004810190505b60648310612965576064838161295b5761295a613a9b565b5b0492506002810190505b600a8310612974576001810190505b80915050919050565b60405180608001604052805f81526020015f73ffffffffffffffffffffffffffffffffffffffff1681526020015f81526020015f151581525090565b5f604051905090565b5f5ffd5b5f5ffd5b5f7fffffffff0000000000000000000000000000000000000000000000000000000082169050919050565b6129fe816129ca565b8114612a08575f5ffd5b50565b5f81359050612a19816129f5565b92915050565b5f60208284031215612a3457612a336129c2565b5b5f612a4184828501612a0b565b91505092915050565b5f8115159050919050565b612a5e81612a4a565b82525050565b5f602082019050612a775f830184612a55565b92915050565b5f81519050919050565b5f82825260208201905092915050565b8281835e5f83830152505050565b5f601f19601f8301169050919050565b5f612abf82612a7d565b612ac98185612a87565b9350612ad9818560208601612a97565b612ae281612aa5565b840191505092915050565b5f6020820190508181035f830152612b058184612ab5565b905092915050565b5f819050919050565b612b1f81612b0d565b8114612b29575f5ffd5b50565b5f81359050612b3a81612b16565b92915050565b5f60208284031215612b5557612b546129c2565b5b5f612b6284828501612b2c565b91505092915050565b5f73ffffffffffffffffffffffffffffffffffffffff82169050919050565b5f612b9482612b6b565b9050919050565b612ba481612b8a565b82525050565b5f602082019050612bbd5f830184612b9b565b92915050565b612bcc81612b8a565b8114612bd6575f5ffd5b50565b5f81359050612be781612bc3565b92915050565b5f5f60408385031215612c0357612c026129c2565b5b5f612c1085828601612bd9565b9250506020612c2185828601612b2c565b9150509250929050565b5f5f5f60608486031215612c4257612c416129c2565b5b5f612c4f86828701612bd9565b9350506020612c6086828701612bd9565b9250506040612c7186828701612b2c565b9150509250925092565b612c8481612b0d565b82525050565b5f602082019050612c9d5f830184612c7b565b92915050565b5f612cad82612b6b565b9050919050565b612cbd81612ca3565b82525050565b5f608082019050612cd65f830187612c7b565b612ce36020830186612cb4565b612cf06040830185612c7b565b612cfd6060830184612a55565b95945050505050565b5f81519050919050565b5f82825260208201905092915050565b5f819050602082019050919050565b612d3881612b0d565b82525050565b612d4781612ca3565b82525050565b612d5681612a4a565b82525050565b608082015f820151612d705f850182612d2f565b506020820151612d836020850182612d3e565b506040820151612d966040850182612d2f565b506060820151612da96060850182612d4d565b50505050565b5f612dba8383612d5c565b60808301905092915050565b5f602082019050919050565b5f612ddc82612d06565b612de68185612d10565b9350612df183612d20565b805f5b83811015612e21578151612e088882612daf565b9750612e1383612dc6565b925050600181019050612df4565b5085935050505092915050565b5f6020820190508181035f830152612e468184612dd2565b905092915050565b5f60208284031215612e6357612e626129c2565b5b5f612e7084828501612bd9565b91505092915050565b5f5ffd5b5f5ffd5b7f4e487b71000000000000000000000000000000000000000000000000000000005f52604160045260245ffd5b612eb782612aa5565b810181811067ffffffffffffffff82111715612ed657612ed5612e81565b5b80604052505050565b5f612ee86129b9565b9050612ef48282612eae565b919050565b5f67ffffffffffffffff821115612f1357612f12612e81565b5b612f1c82612aa5565b9050602081019050919050565b828183375f83830152505050565b5f612f49612f4484612ef9565b612edf565b905082815260208101848484011115612f6557612f64612e7d565b5b612f70848285612f29565b509392505050565b5f82601f830112612f8c57612f8b612e79565b5b8135612f9c848260208601612f37565b91505092915050565b5f5f60408385031215612fbb57612fba6129c2565b5b5f83013567ffffffffffffffff811115612fd857612fd76129c6565b5b612fe485828601612f78565b9250506020612ff585828601612b2c565b9150509250929050565b61300881612a4a565b8114613012575f5ffd5b50565b5f8135905061302381612fff565b92915050565b5f5f6040838503121561303f5761303e6129c2565b5b5f61304c85828601612bd9565b925050602061305d85828601613015565b9150509250929050565b5f67ffffffffffffffff82111561308157613080612e81565b5b61308a82612aa5565b9050602081019050919050565b5f6130a96130a484613067565b612edf565b9050828152602081018484840111156130c5576130c4612e7d565b5b6130d0848285612f29565b509392505050565b5f82601f8301126130ec576130eb612e79565b5b81356130fc848260208601613097565b91505092915050565b5f5f5f5f6080858703121561311d5761311c6129c2565b5b5f61312a87828801612bd9565b945050602061313b87828801612bd9565b935050604061314c87828801612b2c565b925050606085013567ffffffffffffffff81111561316d5761316c6129c6565b5b613179878288016130d8565b91505092959194509250565b5f5f6040838503121561319b5761319a6129c2565b5b5f6131a885828601612b2c565b92505060206131b985828601612b2c565b9150509250929050565b5f5f604083850312156131d9576131d86129c2565b5b5f6131e685828601612bd9565b92505060206131f785828601612bd9565b9150509250929050565b7f4e487b71000000000000000000000000000000000000000000000000000000005f52602260045260245ffd5b5f600282049050600182168061324557607f821691505b60208210810361325857613257613201565b5b50919050565b5f6060820190506132715f830186612b9b565b61327e6020830185612c7b565b61328b6040830184612b9b565b949350505050565b7f4974656d206e6f7420666f722073616c650000000000000000000000000000005f82015250565b5f6132c7601183612a87565b91506132d282613293565b602082019050919050565b5f6020820190508181035f8301526132f4816132bb565b9050919050565b7f53656e642065786163742061736b696e672070726963650000000000000000005f82015250565b5f61332f601783612a87565b915061333a826132fb565b602082019050919050565b5f6020820190508181035f83015261335c81613323565b9050919050565b7f53656c6c65722063616e6e6f7420627579206f776e206974656d0000000000005f82015250565b5f613397601a83612a87565b91506133a282613363565b602082019050919050565b5f6020820190508181035f8301526133c48161338b565b9050919050565b7f4e487b71000000000000000000000000000000000000000000000000000000005f52601160045260245ffd5b5f61340282612b0d565b915061340d83612b0d565b9250828203905081811115613425576134246133cb565b5b92915050565b5f60408201905061343e5f830185612b9b565b61344b6020830184612c7b565b9392505050565b7f4e487b71000000000000000000000000000000000000000000000000000000005f52603260045260245ffd5b5f61348982612b0d565b91507fffffffffffffffffffffffffffffffffffffffffffffffffffffffffffffffff82036134bb576134ba6133cb565b5b600182019050919050565b7f4d7573742070617920726f79616c7479206665652028302e30303031204554485f8201527f2900000000000000000000000000000000000000000000000000000000000000602082015250565b5f613520602183612a87565b915061352b826134c6565b604082019050919050565b5f6020820190508181035f83015261354d81613514565b9050919050565b7f5072696365206d757374206265206174206c65617374203120776569000000005f82015250565b5f613588601c83612a87565b915061359382613554565b602082019050919050565b5f6020820190508181035f8301526135b58161357c565b9050919050565b5f81905092915050565b5f6135d082612a7d565b6135da81856135bc565b93506135ea818560208601612a97565b80840191505092915050565b5f61360182856135c6565b915061360d82846135c6565b91508190509392505050565b7f4d7573742070617920726f79616c7479206665650000000000000000000000005f82015250565b5f61364d601483612a87565b915061365882613619565b602082019050919050565b5f6020820190508181035f83015261367a81613641565b9050919050565b7f5072696365206d757374206265203e20300000000000000000000000000000005f82015250565b5f6136b5601183612a87565b91506136c082613681565b602082019050919050565b5f6020820190508181035f8301526136e2816136a9565b9050919050565b7f4e6f7420746865206f776e6572000000000000000000000000000000000000005f82015250565b5f61371d600d83612a87565b9150613728826136e9565b602082019050919050565b5f6020820190508181035f83015261374a81613711565b9050919050565b5f819050815f5260205f209050919050565b5f6020601f8301049050919050565b5f82821b905092915050565b5f600883026137ad7fffffffffffffffffffffffffffffffffffffffffffffffffffffffffffffffff82613772565b6137b78683613772565b95508019841693508086168417925050509392505050565b5f819050919050565b5f6137f26137ed6137e884612b0d565b6137cf565b612b0d565b9050919050565b5f819050919050565b61380b836137d8565b61381f613817826137f9565b84845461377e565b825550505050565b5f5f905090565b613836613827565b613841818484613802565b505050565b5b81811015613864576138595f8261382e565b600181019050613847565b5050565b601f8211156138a95761387a81613751565b61388384613763565b81016020851015613892578190505b6138a661389e85613763565b830182613846565b50505b505050565b5f82821c905092915050565b5f6138c95f19846008026138ae565b1980831691505092915050565b5f6138e183836138ba565b9150826002028217905092915050565b6138fa82612a7d565b67ffffffffffffffff81111561391357613912612e81565b5b61391d825461322e565b613928828285613868565b5f60209050601f831160018114613959575f8415613947578287015190505b61395185826138d6565b8655506139b8565b601f19841661396786613751565b5f5b8281101561398e57848901518255600182019150602085019450602081019050613969565b868310156139ab57848901516139a7601f8916826138ba565b8355505b6001600288020188555050505b505050505050565b5f81519050919050565b5f82825260208201905092915050565b5f6139e4826139c0565b6139ee81856139ca565b93506139fe818560208601612a97565b613a0781612aa5565b840191505092915050565b5f608082019050613a255f830187612b9b565b613a326020830186612b9b565b613a3f6040830185612c7b565b8181036060830152613a5181846139da565b905095945050505050565b5f81519050613a6a816129f5565b92915050565b5f60208284031215613a8557613a846129c2565b5b5f613a9284828501613a5c565b91505092915050565b7f4e487b71000000000000000000000000000000000000000000000000000000005f52601260045260245ffdfea2646970667358221220672221e46456beb6b4a9fb1fc62981e6d1e6873580890d563bae1abae8da74eb64736f6c634300081c0033",
  "linkReferences": {},
  "deployedLinkReferences": {},
  "immutableReferences": {},
  "inputSourceName": "project/contracts/MusicNFTMarketplace.sol",
  "buildInfoId": "solc-0_8_28-68ce82f652d8aa7534c78d941d5cb4e352ce453b"
}