{
  "_format": "hh3-artifact-1",
  "contractName": "MusicNFT",
  "sourceName": "contracts/MusicNFT.sol",
  "abi": [
    {
      "inputs": [],
      "stateMutability": "nonpayable",
      "type": "constructor"
    },
    {
      "inputs": [
        {
          "internalType": "uint256",
          "name": "numerator",
          "type": "uint256"
        },
        {
          "internalType": "uint256",
          "name": "denominator",
          "type": "uint256"
        }
      ],
      "name": "ERC2981InvalidDefaultRoyalty",
      "type": "error"
    },
    {
      "inputs": [
        {
          "internalType": "address",
          "name": "receiver",
          "type": "address"
        }
      ],
      "name": "ERC2981InvalidDefaultRoyaltyReceiver",
      "type": "error"
    },
    {
      "inputs": [
        {
          "internalType": "uint256",
          "name": "tokenId",
          "type": "uint256"
        },
        {
          "internalType": "uint256",
          "name": "numerator",
          "type": "uint256"
        },
        {
          "internalType": "uint256",
          "name": "denominator",
          "type": "uint256"
        }
      ],
      "name": "ERC2981InvalidTokenRoyalty",
      "type": "error"
    },
    {
      "inputs": [
        {
          "internalType": "uint256",
          "name": "tokenId",
          "type": "uint256"
        },
        {
          "internalType": "address",
          "name": "receiver",
          "type": "address"
        }
      ],
      "name": "ERC2981InvalidTokenRoyaltyReceiver",
      "type": "error"
    },
    {
      "inputs": [
        {
          "internalType": "address",
          "name": "sender",
          "type": "address"
        },
        {
          "internalType": "uint256",
          "name": "tokenId",
          "type": "uint256"
        },
        {
          "internalType": "address",
          "name": "owner",
          "type": "address"
        }
      ],
      "name": "ERC721IncorrectOwner",
      "type": "error"
    },
    {
      "inputs": [
        {
          "internalType": "address",
          "name": "operator",
          "type": "address"
        },
        {
          "internalType": "uint256",
          "name": "tokenId",
          "type": "uint256"
        }
      ],
      "name": "ERC721InsufficientApproval",
      "type": "error"
    },
    {
      "inputs": [
        {
          "internalType": "address",
          "name": "approver",
          "type": "address"
        }
      ],
      "name": "ERC721InvalidApprover",
      "type": "error"
    },
    {
      "inputs": [
        {
          "internalType": "address",
          "name": "operator",
          "type": "address"
        }
      ],
      "name": "ERC721InvalidOperator",
      "type": "error"
    },
    {
      "inputs": [
        {
          "internalType": "address",
          "name": "owner",
          "type": "address"
        }
      ],
      "name": "ERC721InvalidOwner",
      "type": "error"
    },
    {
      "inputs": [
        {
          "internalType": "address",
          "name": "receiver",
          "type": "address"
        }
      ],
      "name": "ERC721InvalidReceiver",
      "type": "error"
    },
    {
      "inputs": [
        {
          "internalType": "address",
          "name": "sender",
          "type": "address"
        }
      ],
      "name": "ERC721InvalidSender",
      "type": "error"
    },
    {
      "inputs": [
        {
          "internalType": "uint256",
          "name": "tokenId",
          "type": "uint256"
        }
      ],
      "name": "ERC721NonexistentToken",
      "type": "error"
    },
    {
      "inputs": [],
      "name": "EmptyMetadataURI",
      "type": "error"
    },
    {
      "inputs": [
        {
          "internalType": "address",
          "name": "owner",
          "type": "address"
        }
      ],
      "name": "OwnableInvalidOwner",
      "type": "error"
    },
    {
      "inputs": [
        {
          "internalType": "address",
          "name": "account",
          "type": "address"
        }
      ],
      "name": "OwnableUnauthorizedAccount",
      "type": "error"
    },
    {
      "inputs": [
        {
          "internalType": "uint256",
          "name": "tokenId",
          "type": "uint256"
        }
      ],
      "name": "TokenNotFound",
      "type": "error"
    },
    {
      "anonymous": false,
      "inputs": [
        {
          "indexed": true,
          "internalType": "address",
          "name": "owner",
          "type": "address"
        },
        {
          "indexed": true,
          "internalType": "address",
          "name": "approved",
          "type": "address"
        },
        {
          "indexed": true,
          "internalType": "uint256",
          "name": "tokenId",
          "type": "uint256"
        }
      ],
      "name": "Approval",
      "type": "event"
    },
    {
      "anonymous": false,
      "inputs": [
        {
          "indexed": true,
          "internalType": "address",
          "name": "owner",
          "type": "address"
        },
        {
          "indexed": true,
          "internalType": "address",
          "name": "operator",
          "type": "address"
        },
        {
          "indexed": false,
          "internalType": "bool",
          "name": "approved",
          "type": "bool"
        }
      ],
      "name": "ApprovalForAll",
      "type": "event"
    },
    {
      "anonymous": false,
      "inputs": [
        {
          "indexed": false,
          "internalType": "uint256",
          "name": "_fromTokenId",
          "type": "uint256"
        },
        {
          "indexed": false,
          "internalType": "uint256",
          "name": "_toTokenId",
          "type": "uint256"
        }
      ],
      "name": "BatchMetadataUpdate",
      "type": "event"
    },
    {
      "anonymous": false,
      "inputs": [
        {
          "indexed": true,
          "internalType": "uint256",
          "name": "tokenId",
          "type": "uint256"
        },
        {
          "indexed": true,
          "internalType": "uint256",
          "name": "trackId",
          "type": "uint256"
        },
        {
          "indexed": true,
          "internalType": "address",
          "name": "creator",
          "type": "address"
        },
        {
          "indexed": false,
          "internalType": "string",
          "name": "metadataURI",
          "type": "string"
        }
      ],
      "name": "CollectibleMinted",
      "type": "event"
    },
    {
      "anonymous": false,
      "inputs": [
        {
          "indexed": false,
          "internalType": "uint256",
          "name": "_tokenId",
          "type": "uint256"
        }
      ],
      "name": "MetadataUpdate",
      "type": "event"
    },
    {
      "anonymous": false,
      "inputs": [
        {
          "indexed": true,
          "internalType": "address",
          "name": "previousOwner",
          "type": "address"
        },
        {
          "indexed": true,
          "internalType": "address",
          "name": "newOwner",
          "type": "address"
        }
      ],
      "name": "OwnershipTransferred",
      "type": "event"
    },
    {
      "anonymous": false,
      "inputs": [
        {
          "indexed": true,
          "internalType": "address",
          "name": "from",
          "type": "address"
        },
        {
          "indexed": true,
          "internalType": "address",
          "name": "to",
          "type": "address"
        },
        {
          "indexed": true,
          "internalType": "uint256",
          "name": "tokenId",
          "type": "uint256"
        }
      ],
      "name": "Transfer",
      "type": "event"
    },
    {
      "inputs": [
        {
          "internalType": "address",
          "name": "to",
          "type": "address"
        },
        {
          "internalType": "uint256",
          "name": "tokenId",
          "type": "uint256"
        }
      ],
      "name": "approve",
      "outputs": [],
      "stateMutability": "nonpayable",
      "type": "function"
    },
    {
      "inputs": [
        {
          "internalType": "address",
          "name": "owner",
          "type": "address"
        }
      ],
      "name": "balanceOf",
      "outputs": [
        {
          "internalType": "uint256",
          "name": "",
          "type": "uint256"
        }
      ],
      "stateMutability": "view",
      "type": "function"
    },
    {
      "inputs": [
        {
          "internalType": "uint256",
          "name": "tokenId",
          "type": "uint256"
        }
      ],
      "name": "burn",
      "outputs": [],
      "stateMutability": "nonpayable",
      "type": "function"
    },
    {
      "inputs": [
        {
          "internalType": "uint256",
          "name": "tokenId",
          "type": "uint256"
        }
      ],
      "name": "getApproved",
      "outputs": [
        {
          "internalType": "address",
          "name": "",
          "type": "address"
        }
      ],
      "stateMutability": "view",
      "type": "function"
    },
    {
      "inputs": [
        {
          "internalType": "uint256",
          "name": "tokenId",
          "type": "uint256"
        }
      ],
      "name": "getCollectible",
      "outputs": [
        {
          "components": [
            {
              "internalType": "uint256",
              "name": "tokenId",
              "type": "uint256"
            },
            {
              "internalType": "uint256",
              "name": "trackId",
              "type": "uint256"
            },
            {
              "internalType": "address",
              "name": "creator",
              "type": "address"
            },
            {
              "internalType": "string",
              "name": "metadataURI",
              "type": "string"
            },
            {
              "internalType": "uint256",
              "name": "mintedAt",
              "type": "uint256"
            }
          ],
          "internalType": "struct MusicNFT.Collectible",
          "name": "",
          "type": "tuple"
        }
      ],
      "stateMutability": "view",
      "type": "function"
    },
    {
      "inputs": [
        {
          "internalType": "address",
          "name": "owner",
          "type": "address"
        },
        {
          "internalType": "address",
          "name": "operator",
          "type": "address"
        }
      ],
      "name": "isApprovedForAll",
      "outputs": [
        {
          "internalType": "bool",
          "name": "",
          "type": "bool"
        }
      ],
      "stateMutability": "view",
      "type": "function"
    },
    {
      "inputs": [
        {
          "internalType": "address",
          "name": "to",
          "type": "address"
        },
        {
          "internalType": "uint256",
          "name": "trackId",
          "type": "uint256"
        },
        {
          "internalType": "string",
          "name": "metadataURI",
          "type": "string"
        },
        {
          "internalType": "address",
          "name": "royaltyReceiver",
          "type": "address"
        },
        {
          "internalType": "uint96",
          "name": "royaltyFee",
          "type": "uint96"
        }
      ],
      "name": "mintCollectible",
      "outputs": [
        {
          "internalType": "uint256",
          "name": "tokenId",
          "type": "uint256"
        }
      ],
      "stateMutability": "nonpayable",
      "type": "function"
    },
    {
      "inputs": [],
      "name": "name",
      "outputs": [
        {
          "internalType": "string",
          "name": "",
          "type": "string"
        }
      ],
      "stateMutability": "view",
      "type": "function"
    },
    {
      "inputs": [],
      "name": "owner",
      "outputs": [
        {
          "internalType": "address",
          "name": "",
          "type": "address"
        }
      ],
      "stateMutability": "view",
      "type": "function"
    },
    {
      "inputs": [
        {
          "internalType": "uint256",
          "name": "tokenId",
          "type": "uint256"
        }
      ],
      "name": "ownerOf",
      "outputs": [
        {
          "internalType": "address",
          "name": "",
          "type": "address"
        }
      ],
      "stateMutability": "view",
      "type": "function"
    },
    {
      "inputs": [],
      "name": "renounceOwnership",
      "outputs": [],
      "stateMutability": "nonpayable",
      "type": "function"
    },
    {
      "inputs": [
        {
          "internalType": "uint256",
          "name": "tokenId",
          "type": "uint256"
        },
        {
          "internalType": "uint256",
          "name": "salePrice",
          "type": "uint256"
        }
      ],
      "name": "royaltyInfo",
      "outputs": [
        {
          "internalType": "address",
          "name": "receiver",
          "type": "address"
        },
        {
          "internalType": "uint256",
          "name": "amount",
          "type": "uint256"
        }
      ],
      "stateMutability": "view",
      "type": "function"
    },
    {
      "inputs": [
        {
          "internalType": "address",
          "name": "from",
          "type": "address"
        },
        {
          "internalType": "address",
          "name": "to",
          "type": "address"
        },
        {
          "internalType": "uint256",
          "name": "tokenId",
          "type": "uint256"
        }
      ],
      "name": "safeTransferFrom",
      "outputs": [],
      "stateMutability": "nonpayable",
      "type": "function"
    },
    {
      "inputs": [
        {
          "internalType": "address",
          "name": "from",
          "type": "address"
        },
        {
          "internalType": "address",
          "name": "to",
          "type": "address"
        },
        {
          "internalType": "uint256",
          "name": "tokenId",
          "type": "uint256"
        },
        {
          "internalType": "bytes",
          "name": "data",
          "type": "bytes"
        }
      ],
      "name": "safeTransferFrom",
      "outputs": [],
      "stateMutability": "nonpayable",
      "type": "function"
    },
    {
      "inputs": [
        {
          "internalType": "address",
          "name": "operator",
          "type": "address"
        },
        {
          "internalType": "bool",
          "name": "approved",
          "type": "bool"
        }
      ],
      "name": "setApprovalForAll",
      "outputs": [],
      "stateMutability": "nonpayable",
      "type": "function"
    },
    {
      "inputs": [
        {
          "internalType": "bytes4",
          "name": "interfaceId",
          "type": "bytes4"
        }
      ],
      "name": "supportsInterface",
      "outputs": [
        {
          "internalType": "bool",
          "name": "",
          "type": "bool"
        }
      ],
      "stateMutability": "view",
      "type": "function"
    },
    {
      "inputs": [],
      "name": "symbol",
      "outputs": [
        {
          "internalType": "string",
          "name": "",
          "type": "string"
        }
      ],
      "stateMutability": "view",
      "type": "function"
    },
    {
      "inputs": [
        {
          "internalType": "uint256",
          "name": "tokenId",
          "type": "uint256"
        }
      ],
      "name": "tokenURI",
      "outputs": [
        {
          "internalType": "string",
          "name": "",
          "type": "string"
        }
      ],
      "stateMutability": "view",
      "type": "function"
    },
    {
      "inputs": [],
      "name": "totalMinted",
      "outputs": [
        {
          "internalType": "uint256",
          "name": "",
          "type": "uint256"
        }
      ],
      "stateMutability": "view",
      "type": "function"
    },
    {
      "inputs": [
        {
          "internalType": "address",
          "name": "from",
          "type": "address"
        },
        {
          "internalType": "address",
          "name": "to",
          "type": "address"
        },
        {
          "internalType": "uint256",
          "name": "tokenId",
          "type": "uint256"
        }
      ],
      "name": "transferFrom",
      "outputs": [],
      "stateMutability": "nonpayable",
      "type": "function"
    },
    {
      "inputs": [
        {
          "internalType": "address",
          "name": "newOwner",
          "type": "address"
        }
      ],
      "name": "transferOwnership",
      "outputs": [],
      "stateMutability": "nonpayable",
      "type": "function"
    }
  ],
  "bytecode": "0x608060405234801561000f575f5ffd5b50336040518060400160405280600881526020017f4d757369634e46540000000000000000000000000000000000000000000000008152506040518060400160405280600581526020017f4d55534943000000000000000000000000000000000000000000000000000000815250815f908161008b9190610423565b50806001908161009b9190610423565b5050505f73ffffffffffffffffffffffffffffffffffffffff168173ffffffffffffffffffffffffffffffffffffffff160361010e575f6040517f1e4fbdf70000000000000000000000000000000000000000000000000000000081526004016101059190610531565b60405180910390fd5b61011d8161012360201b60201c565b5061054a565b5f60095f9054906101000a900473ffffffffffffffffffffffffffffffffffffffff1690508160095f6101000a81548173ffffffffffffffffffffffffffffffffffffffff021916908373ffffffffffffffffffffffffffffffffffffffff1602179055508173ffffffffffffffffffffffffffffffffffffffff168173ffffffffffffffffffffffffffffffffffffffff167f8be0079c531659141344cd1fd0a4f28419497f9722a3daafe3b4186f6b6457e060405160405180910390a35050565b5f81519050919050565b7f4e487b71000000000000000000000000000000000000000000000000000000005f52604160045260245ffd5b7f4e487b71000000000000000000000000000000000000000000000000000000005f52602260045260245ffd5b5f600282049050600182168061026157607f821691505b6020821081036102745761027361021d565b5b50919050565b5f819050815f5260205f209050919050565b5f6020601f8301049050919050565b5f82821b905092915050565b5f600883026102d67fffffffffffffffffffffffffffffffffffffffffffffffffffffffffffffffff8261029b565b6102e0868361029b565b95508019841693508086168417925050509392505050565b5f819050919050565b5f819050919050565b5f61032461031f61031a846102f8565b610301565b6102f8565b9050919050565b5f819050919050565b61033d8361030a565b6103516103498261032b565b8484546102a7565b825550505050565b5f5f905090565b610368610359565b610373818484610334565b505050565b5b818110156103965761038b5f82610360565b600181019050610379565b5050565b601f8211156103db576103ac8161027a565b6103b58461028c565b810160208510156103c4578190505b6103d86103d08561028c565b830182610378565b50505b505050565b5f82821c905092915050565b5f6103fb5f19846008026103e0565b1980831691505092915050565b5f61041383836103ec565b9150826002028217905092915050565b61042c826101e6565b67ffffffffffffffff811115610445576104446101f0565b5b61044f825461024a565b61045a82828561039a565b5f60209050601f83116001811461048b575f8415610479578287015190505b6104838582610408565b8655506104ea565b601f1984166104998661027a565b5f5b828110156104c05784890151825560018201915060208501945060208101905061049b565b868310156104dd57848901516104d9601f8916826103ec565b8355505b6001600288020188555050505b505050505050565b5f73ffffffffffffffffffffffffffffffffffffffff82169050919050565b5f61051b826104f2565b9050919050565b61052b81610511565b82525050565b5f6020820190506105445f830184610522565b92915050565b613238806105575f395ff3fe608060405234801561000f575f5ffd5b5060043610610135575f3560e01c806370a08231116100b6578063a22cb4651161007a578063a22cb4651461035e578063a2309ff81461037a578063b88d4fde14610398578063c87b56dd146103b4578063e985e9c5146103e4578063f2fde38b1461041457610135565b806370a08231146102b8578063715018a6146102e857806372d99675146102f25780638da5cb5b1461032257806395d89b411461034057610135565b806327da72cf116100fd57806327da72cf146101ef5780632a55205a1461021f57806342842e0e1461025057806342966c681461026c5780636352211e1461028857610135565b806301ffc9a71461013957806306fdde0314610169578063081812fc14610187578063095ea7b3146101b757806323b872dd146101d3575b5f5ffd5b610153600480360381019061014e919061244a565b610430565b604051610160919061248f565b60405180910390f35b610171610441565b60405161017e9190612518565b60405180910390f35b6101a1600480360381019061019c919061256b565b6104d0565b6040516101ae91906125d5565b60405180910390f35b6101d160048036038101906101cc9190612618565b6104eb565b005b6101ed60048036038101906101e89190612656565b610501565b005b61020960048036038101906102049190612748565b610600565b60405161021691906127ed565b60405180910390f35b61023960048036038101906102349190612806565b610823565b604051610247929190612844565b60405180910390f35b61026a60048036038101906102659190612656565b610945565b005b6102866004803603810190610281919061256b565b610964565b005b6102a2600480360381019061029d919061256b565b6109f1565b6040516102af91906125d5565b60405180910390f35b6102d260048036038101906102cd919061286b565b610a02565b6040516102df91906127ed565b60405180910390f35b6102f0610ab8565b005b61030c6004803603810190610307919061256b565b610acb565b604051610319919061296f565b60405180910390f35b61032a610c70565b60405161033791906125d5565b60405180910390f35b610348610c98565b6040516103559190612518565b60405180910390f35b610378600480360381019061037391906129b9565b610d28565b005b610382610d3e565b60405161038f91906127ed565b60405180910390f35b6103b260048036038101906103ad9190612b1f565b610d47565b005b6103ce60048036038101906103c9919061256b565b610d6c565b6040516103db9190612518565b60405180910390f35b6103fe60048036038101906103f99190612b9f565b610de8565b60405161040b919061248f565b60405180910390f35b61042e6004803603810190610429919061286b565b610e76565b005b5f61043a82610efa565b9050919050565b60605f805461044f90612c0a565b80601f016020809104026020016040519081016040528092919081815260200182805461047b90612c0a565b80156104c65780601f1061049d576101008083540402835291602001916104c6565b820191905f5260205f20905b8154815290600101906020018083116104a957829003601f168201915b5050505050905090565b5f6104da82610f73565b506104e482610ff9565b9050919050565b6104fd82826104f8611032565b611039565b5050565b5f73ffffffffffffffffffffffffffffffffffffffff168273ffffffffffffffffffffffffffffffffffffffff1603610571575f6040517f64a0ae9200000000000000000000000000000000000000000000000000000000815260040161056891906125d5565b60405180910390fd5b5f610584838361057f611032565b61104b565b90508373ffffffffffffffffffffffffffffffffffffffff168173ffffffffffffffffffffffffffffffffffffffff16146105fa578382826040517f64283d7b0000000000000000000000000000000000000000000000000000000081526004016105f193929190612c3a565b60405180910390fd5b50505050565b5f5f858590500361063d576040517f251c1d8200000000000000000000000000000000000000000000000000000000815260040160405180910390fd5b600a549050600a5f81548092919061065490612c9c565b91905055506106638782611256565b6106b08186868080601f0160208091040260200160405190810160405280939291908181526020018383808284375f81840152601f19601f82011690508083019250505050505050611273565b6106bb8184846112cd565b6040518060a001604052808281526020018781526020013373ffffffffffffffffffffffffffffffffffffffff16815260200186868080601f0160208091040260200160405190810160405280939291908181526020018383808284375f81840152601f19601f82011690508083019250505050505050815260200142815250600b5f8381526020019081526020015f205f820151815f0155602082015181600101556040820151816002015f6101000a81548173ffffffffffffffffffffffffffffffffffffffff021916908373ffffffffffffffffffffffffffffffffffffffff16021790555060608201518160030190816107b99190612e83565b50608082015181600401559050503373ffffffffffffffffffffffffffffffffffffffff1686827f4a23769a7c22f8fbb217e48317812a6b6a4aeeb68e0c7821e4bddf8964d83f428888604051610811929190612f7e565b60405180910390a49695505050505050565b5f5f5f60085f8681526020019081526020015f2090505f815f015f9054906101000a900473ffffffffffffffffffffffffffffffffffffffff1690505f825f0160149054906101000a90046bffffffffffffffffffffffff1690505f73ffffffffffffffffffffffffffffffffffffffff168273ffffffffffffffffffffffffffffffffffffffff16036108f75760075f015f9054906101000a900473ffffffffffffffffffffffffffffffffffffffff16915060075f0160149054906101000a90046bffffffffffffffffffffffff1690505b5f61090061147c565b6bffffffffffffffffffffffff16826bffffffffffffffffffffffff16886109289190612fa0565b610932919061300e565b9050828195509550505050509250929050565b61095f83838360405180602001604052805f815250610d47565b505050565b3373ffffffffffffffffffffffffffffffffffffffff1661098482611485565b73ffffffffffffffffffffffffffffffffffffffff16146109dc57806040517f6caeb1300000000000000000000000000000000000000000000000000000000081526004016109d391906127ed565b60405180910390fd5b6109e5816114be565b6109ee81611540565b50565b5f6109fb82610f73565b9050919050565b5f5f73ffffffffffffffffffffffffffffffffffffffff168273ffffffffffffffffffffffffffffffffffffffff1603610a73575f6040517f89c62b64000000000000000000000000000000000000000000000000000000008152600401610a6a91906125d5565b60405180910390fd5b60035f8373ffffffffffffffffffffffffffffffffffffffff1673ffffffffffffffffffffffffffffffffffffffff1681526020019081526020015f20549050919050565b610ac061159a565b610ac95f611621565b565b610ad36123a3565b5f73ffffffffffffffffffffffffffffffffffffffff16610af383611485565b73ffffffffffffffffffffffffffffffffffffffff1603610b4b57816040517f6caeb130000000000000000000000000000000000000000000000000000000008152600401610b4291906127ed565b60405180910390fd5b600b5f8381526020019081526020015f206040518060a00160405290815f820154815260200160018201548152602001600282015f9054906101000a900473ffffffffffffffffffffffffffffffffffffffff1673ffffffffffffffffffffffffffffffffffffffff1673ffffffffffffffffffffffffffffffffffffffff168152602001600382018054610bdf90612c0a565b80601f0160208091040260200160405190810160405280929190818152602001828054610c0b90612c0a565b8015610c565780601f10610c2d57610100808354040283529160200191610c56565b820191905f5260205f20905b815481529060010190602001808311610c3957829003601f168201915b505050505081526020016004820154815250509050919050565b5f60095f9054906101000a900473ffffffffffffffffffffffffffffffffffffffff16905090565b606060018054610ca790612c0a565b80601f0160208091040260200160405190810160405280929190818152602001828054610cd390612c0a565b8015610d1e5780601f10610cf557610100808354040283529160200191610d1e565b820191905f5260205f20905b815481529060010190602001808311610d0157829003601f168201915b5050505050905090565b610d3a610d33611032565b83836116e4565b5050565b5f600a54905090565b610d52848484610501565b610d66610d5d611032565b858585856118bd565b50505050565b6060610d7782610f73565b505f610d81611a69565b90505f610d8d84611a7f565b90505f825103610da1578092505050610de3565b5f81511115610dd5578181604051602001610dbd929190613078565b60405160208183030381529060405292505050610de3565b610dde84611b20565b925050505b919050565b5f60055f8473ffffffffffffffffffffffffffffffffffffffff1673ffffffffffffffffffffffffffffffffffffffff1681526020019081526020015f205f8373ffffffffffffffffffffffffffffffffffffffff1673ffffffffffffffffffffffffffffffffffffffff1681526020019081526020015f205f9054906101000a900460ff16905092915050565b610e7e61159a565b5f73ffffffffffffffffffffffffffffffffffffffff168173ffffffffffffffffffffffffffffffffffffffff1603610eee575f6040517f1e4fbdf7000000000000000000000000000000000000000000000000000000008152600401610ee591906125d5565b60405180910390fd5b610ef781611621565b50565b5f7f2a55205a000000000000000000000000000000000000000000000000000000007bffffffffffffffffffffffffffffffffffffffffffffffffffffffff1916827bffffffffffffffffffffffffffffffffffffffffffffffffffffffff19161480610f6c5750610f6b82611b86565b5b9050919050565b5f5f610f7e83611485565b90505f73ffffffffffffffffffffffffffffffffffffffff168173ffffffffffffffffffffffffffffffffffffffff1603610ff057826040517f7e273289000000000000000000000000000000000000000000000000000000008152600401610fe791906127ed565b60405180910390fd5b80915050919050565b5f60045f8381526020019081526020015f205f9054906101000a900473ffffffffffffffffffffffffffffffffffffffff169050919050565b5f33905090565b6110468383836001611be6565b505050565b5f5f61105684611485565b90505f73ffffffffffffffffffffffffffffffffffffffff168373ffffffffffffffffffffffffffffffffffffffff161461109757611096818486611da5565b5b5f73ffffffffffffffffffffffffffffffffffffffff168173ffffffffffffffffffffffffffffffffffffffff1614611122576110d65f855f5f611be6565b600160035f8373ffffffffffffffffffffffffffffffffffffffff1673ffffffffffffffffffffffffffffffffffffffff1681526020019081526020015f205f82825403925050819055505b5f73ffffffffffffffffffffffffffffffffffffffff168573ffffffffffffffffffffffffffffffffffffffff16146111a157600160035f8773ffffffffffffffffffffffffffffffffffffffff1673ffffffffffffffffffffffffffffffffffffffff1681526020019081526020015f205f82825401925050819055505b8460025f8681526020019081526020015f205f6101000a81548173ffffffffffffffffffffffffffffffffffffffff021916908373ffffffffffffffffffffffffffffffffffffffff160217905550838573ffffffffffffffffffffffffffffffffffffffff168273ffffffffffffffffffffffffffffffffffffffff167fddf252ad1be2c89b69c2b068fc378daa952ba7f163c4a11628f55a4df523b3ef60405160405180910390a4809150509392505050565b61126f828260405180602001604052805f815250611e68565b5050565b8060065f8481526020019081526020015f2090816112919190612e83565b507ff8e1a15aba9398e019f0b49df1a4fde98ee17ae345cb5f6b5e2c27f5033e8ce7826040516112c191906127ed565b60405180910390a15050565b5f6112d661147c565b6bffffffffffffffffffffffff16905080826bffffffffffffffffffffffff16111561133d578382826040517fdfd1fc1b000000000000000000000000000000000000000000000000000000008152600401611334939291906130cb565b60405180910390fd5b5f73ffffffffffffffffffffffffffffffffffffffff168373ffffffffffffffffffffffffffffffffffffffff16036113af57835f6040517f969f08520000000000000000000000000000000000000000000000000000000081526004016113a6929190613100565b60405180910390fd5b60405180604001604052808473ffffffffffffffffffffffffffffffffffffffff168152602001836bffffffffffffffffffffffff1681525060085f8681526020019081526020015f205f820151815f015f6101000a81548173ffffffffffffffffffffffffffffffffffffffff021916908373ffffffffffffffffffffffffffffffffffffffff1602179055506020820151815f0160146101000a8154816bffffffffffffffffffffffff02191690836bffffffffffffffffffffffff16021790555090505050505050565b5f612710905090565b5f60025f8381526020019081526020015f205f9054906101000a900473ffffffffffffffffffffffffffffffffffffffff169050919050565b5f6114ca5f835f61104b565b90505f73ffffffffffffffffffffffffffffffffffffffff168173ffffffffffffffffffffffffffffffffffffffff160361153c57816040517f7e27328900000000000000000000000000000000000000000000000000000000815260040161153391906127ed565b60405180910390fd5b5050565b60085f8281526020019081526020015f205f5f82015f6101000a81549073ffffffffffffffffffffffffffffffffffffffff02191690555f820160146101000a8154906bffffffffffffffffffffffff0219169055505050565b6115a2611032565b73ffffffffffffffffffffffffffffffffffffffff166115c0610c70565b73ffffffffffffffffffffffffffffffffffffffff161461161f576115e3611032565b6040517f118cdaa700000000000000000000000000000000000000000000000000000000815260040161161691906125d5565b60405180910390fd5b565b5f60095f9054906101000a900473ffffffffffffffffffffffffffffffffffffffff1690508160095f6101000a81548173ffffffffffffffffffffffffffffffffffffffff021916908373ffffffffffffffffffffffffffffffffffffffff1602179055508173ffffffffffffffffffffffffffffffffffffffff168173ffffffffffffffffffffffffffffffffffffffff167f8be0079c531659141344cd1fd0a4f28419497f9722a3daafe3b4186f6b6457e060405160405180910390a35050565b5f73ffffffffffffffffffffffffffffffffffffffff168373ffffffffffffffffffffffffffffffffffffffff1603611754575f6040517fa9fbf51f00000000000000000000000000000000000000000000000000000000815260040161174b91906125d5565b60405180910390fd5b5f73ffffffffffffffffffffffffffffffffffffffff168273ffffffffffffffffffffffffffffffffffffffff16036117c457816040517f5b08ba180000000000000000000000000000000000000000000000000000000081526004016117bb91906125d5565b60405180910390fd5b8060055f8573ffffffffffffffffffffffffffffffffffffffff1673ffffffffffffffffffffffffffffffffffffffff1681526020019081526020015f205f8473ffffffffffffffffffffffffffffffffffffffff1673ffffffffffffffffffffffffffffffffffffffff1681526020019081526020015f205f6101000a81548160ff0219169083151502179055508173ffffffffffffffffffffffffffffffffffffffff168373ffffffffffffffffffffffffffffffffffffffff167f17307eab39ab6107e8899845ad3d59bd9653f200f220920489ca2b5937696c31836040516118b0919061248f565b60405180910390a3505050565b5f8373ffffffffffffffffffffffffffffffffffffffff163b1115611a62578273ffffffffffffffffffffffffffffffffffffffff1663150b7a02868685856040518563ffffffff1660e01b815260040161191b9493929190613179565b6020604051808303815f875af192505050801561195657506040513d601f19601f8201168201806040525081019061195391906131d7565b60015b6119d7573d805f8114611984576040519150601f19603f3d011682016040523d82523d5f602084013e611989565b606091505b505f8151036119cf57836040517f64a0ae920000000000000000000000000000000000000000000000000000000081526004016119c691906125d5565b60405180910390fd5b805160208201fd5b63150b7a0260e01b7bffffffffffffffffffffffffffffffffffffffffffffffffffffffff1916817bffffffffffffffffffffffffffffffffffffffffffffffffffffffff191614611a6057836040517f64a0ae92000000000000000000000000000000000000000000000000000000008152600401611a5791906125d5565b60405180910390fd5b505b5050505050565b606060405180602001604052805f815250905090565b606060065f8381526020019081526020015f208054611a9d90612c0a565b80601f0160208091040260200160405190810160405280929190818152602001828054611ac990612c0a565b8015611b145780601f10611aeb57610100808354040283529160200191611b14565b820191905f5260205f20905b815481529060010190602001808311611af757829003601f168201915b50505050509050919050565b6060611b2b82610f73565b505f611b35611a69565b90505f815111611b535760405180602001604052805f815250611b7e565b80611b5d84611e8b565b604051602001611b6e929190613078565b6040516020818303038152906040525b915050919050565b5f634906490660e01b7bffffffffffffffffffffffffffffffffffffffffffffffffffffffff1916827bffffffffffffffffffffffffffffffffffffffffffffffffffffffff19161480611bdf5750611bde82611f55565b5b9050919050565b8080611c1e57505f73ffffffffffffffffffffffffffffffffffffffff168273ffffffffffffffffffffffffffffffffffffffff1614155b15611d50575f611c2d84610f73565b90505f73ffffffffffffffffffffffffffffffffffffffff168373ffffffffffffffffffffffffffffffffffffffff1614158015611c9757508273ffffffffffffffffffffffffffffffffffffffff168173ffffffffffffffffffffffffffffffffffffffff1614155b8015611caa5750611ca88184610de8565b155b15611cec57826040517fa9fbf51f000000000000000000000000000000000000000000000000000000008152600401611ce391906125d5565b60405180910390fd5b8115611d4e57838573ffffffffffffffffffffffffffffffffffffffff168273ffffffffffffffffffffffffffffffffffffffff167f8c5be1e5ebec7d5bd14f71427d1e84f3dd0314c0f7b2291e5b200ac8c7c3b92560405160405180910390a45b505b8360045f8581526020019081526020015f205f6101000a81548173ffffffffffffffffffffffffffffffffffffffff021916908373ffffffffffffffffffffffffffffffffffffffff16021790555050505050565b611db0838383612036565b611e63575f73ffffffffffffffffffffffffffffffffffffffff168373ffffffffffffffffffffffffffffffffffffffff1603611e2457806040517f7e273289000000000000000000000000000000000000000000000000000000008152600401611e1b91906127ed565b60405180910390fd5b81816040517f177e802f000000000000000000000000000000000000000000000000000000008152600401611e5a929190612844565b60405180910390fd5b505050565b611e7283836120f6565b611e86611e7d611032565b5f8585856118bd565b505050565b60605f6001611e99846121e9565b0190505f8167ffffffffffffffff811115611eb757611eb66129fb565b5b6040519080825280601f01601f191660200182016040528015611ee95781602001600182028036833780820191505090505b5090505f82602083010190505b600115611f4a578080600190039150507f3031323334353637383961626364656600000000000000000000000000000000600a86061a8153600a8581611f3f57611f3e612fe1565b5b0494505f8503611ef6575b819350505050919050565b5f7f80ac58cd000000000000000000000000000000000000000000000000000000007bffffffffffffffffffffffffffffffffffffffffffffffffffffffff1916827bffffffffffffffffffffffffffffffffffffffffffffffffffffffff1916148061201f57507f5b5e139f000000000000000000000000000000000000000000000000000000007bffffffffffffffffffffffffffffffffffffffffffffffffffffffff1916827bffffffffffffffffffffffffffffffffffffffffffffffffffffffff1916145b8061202f575061202e8261233a565b5b9050919050565b5f5f73ffffffffffffffffffffffffffffffffffffffff168373ffffffffffffffffffffffffffffffffffffffff16141580156120ed57508273ffffffffffffffffffffffffffffffffffffffff168473ffffffffffffffffffffffffffffffffffffffff1614806120ae57506120ad8484610de8565b5b806120ec57508273ffffffffffffffffffffffffffffffffffffffff166120d483610ff9565b73ffffffffffffffffffffffffffffffffffffffff16145b5b90509392505050565b5f73ffffffffffffffffffffffffffffffffffffffff168273ffffffffffffffffffffffffffffffffffffffff1603612166575f6040517f64a0ae9200000000000000000000000000000000000000000000000000000000815260040161215d91906125d5565b60405180910390fd5b5f61217283835f61104b565b90505f73ffffffffffffffffffffffffffffffffffffffff168173ffffffffffffffffffffffffffffffffffffffff16146121e4575f6040517f73c6ac6e0000000000000000000000000000000000000000000000000000000081526004016121db91906125d5565b60405180910390fd5b505050565b5f5f5f90507a184f03e93ff9f4daa797ed6e38ed64bf6a1f0100000000000000008310612245577a184f03e93ff9f4daa797ed6e38ed64bf6a1f010000000000000000838161223b5761223a612fe1565b5b0492506040810190505b6d04ee2d6d415b85acef81000000008310612282576d04ee2d6d415b85acef8100000000838161227857612277612fe1565b5b0492506020810190505b662386f26fc1000083106122b157662386f26fc1000083816122a7576122a6612fe1565b5b0492506010810190505b6305f5e10083106122da576305f5e10083816122d0576122cf612fe1565b5b0492506008810190505b61271083106122ff5761271083816122f5576122f4612fe1565b5b0492506004810190505b60648310612322576064838161231857612317612fe1565b5b0492506002810190505b600a8310612331576001810190505b80915050919050565b5f7f01ffc9a7000000000000000000000000000000000000000000000000000000007bffffffffffffffffffffffffffffffffffffffffffffffffffffffff1916827bffffffffffffffffffffffffffffffffffffffffffffffffffffffff1916149050919050565b6040518060a001604052805f81526020015f81526020015f73ffffffffffffffffffffffffffffffffffffffff168152602001606081526020015f81525090565b5f604051905090565b5f5ffd5b5f5ffd5b5f7fffffffff0000000000000000000000000000000000000000000000000000000082169050919050565b612429816123f5565b8114612433575f5ffd5b50565b5f8135905061244481612420565b92915050565b5f6020828403121561245f5761245e6123ed565b5b5f61246c84828501612436565b91505092915050565b5f8115159050919050565b61248981612475565b82525050565b5f6020820190506124a25f830184612480565b92915050565b5f81519050919050565b5f82825260208201905092915050565b8281835e5f83830152505050565b5f601f19601f8301169050919050565b5f6124ea826124a8565b6124f481856124b2565b93506125048185602086016124c2565b61250d816124d0565b840191505092915050565b5f6020820190508181035f83015261253081846124e0565b905092915050565b5f819050919050565b61254a81612538565b8114612554575f5ffd5b50565b5f8135905061256581612541565b92915050565b5f602082840312156125805761257f6123ed565b5b5f61258d84828501612557565b91505092915050565b5f73ffffffffffffffffffffffffffffffffffffffff82169050919050565b5f6125bf82612596565b9050919050565b6125cf816125b5565b82525050565b5f6020820190506125e85f8301846125c6565b92915050565b6125f7816125b5565b8114612601575f5ffd5b50565b5f81359050612612816125ee565b92915050565b5f5f6040838503121561262e5761262d6123ed565b5b5f61263b85828601612604565b925050602061264c85828601612557565b9150509250929050565b5f5f5f6060848603121561266d5761266c6123ed565b5b5f61267a86828701612604565b935050602061268b86828701612604565b925050604061269c86828701612557565b9150509250925092565b5f5ffd5b5f5ffd5b5f5ffd5b5f5f83601f8401126126c7576126c66126a6565b5b8235905067ffffffffffffffff8111156126e4576126e36126aa565b5b602083019150836001820283011115612700576126ff6126ae565b5b9250929050565b5f6bffffffffffffffffffffffff82169050919050565b61272781612707565b8114612731575f5ffd5b50565b5f813590506127428161271e565b92915050565b5f5f5f5f5f5f60a08789031215612762576127616123ed565b5b5f61276f89828a01612604565b965050602061278089828a01612557565b955050604087013567ffffffffffffffff8111156127a1576127a06123f1565b5b6127ad89828a016126b2565b945094505060606127c089828a01612604565b92505060806127d189828a01612734565b9150509295509295509295565b6127e781612538565b82525050565b5f6020820190506128005f8301846127de565b92915050565b5f5f6040838503121561281c5761281b6123ed565b5b5f61282985828601612557565b925050602061283a85828601612557565b9150509250929050565b5f6040820190506128575f8301856125c6565b61286460208301846127de565b9392505050565b5f602082840312156128805761287f6123ed565b5b5f61288d84828501612604565b91505092915050565b61289f81612538565b82525050565b6128ae816125b5565b82525050565b5f82825260208201905092915050565b5f6128ce826124a8565b6128d881856128b4565b93506128e88185602086016124c2565b6128f1816124d0565b840191505092915050565b5f60a083015f8301516129115f860182612896565b5060208301516129246020860182612896565b50604083015161293760408601826128a5565b506060830151848203606086015261294f82826128c4565b91505060808301516129646080860182612896565b508091505092915050565b5f6020820190508181035f83015261298781846128fc565b905092915050565b61299881612475565b81146129a2575f5ffd5b50565b5f813590506129b38161298f565b92915050565b5f5f604083850312156129cf576129ce6123ed565b5b5f6129dc85828601612604565b92505060206129ed858286016129a5565b9150509250929050565b5f5ffd5b7f4e487b71000000000000000000000000000000000000000000000000000000005f52604160045260245ffd5b612a31826124d0565b810181811067ffffffffffffffff82111715612a5057612a4f6129fb565b5b80604052505050565b5f612a626123e4565b9050612a6e8282612a28565b919050565b5f67ffffffffffffffff821115612a8d57612a8c6129fb565b5b612a96826124d0565b9050602081019050919050565b828183375f83830152505050565b5f612ac3612abe84612a73565b612a59565b905082815260208101848484011115612adf57612ade6129f7565b5b612aea848285612aa3565b509392505050565b5f82601f830112612b0657612b056126a6565b5b8135612b16848260208601612ab1565b91505092915050565b5f5f5f5f60808587031215612b3757612b366123ed565b5b5f612b4487828801612604565b9450506020612b5587828801612604565b9350506040612b6687828801612557565b925050606085013567ffffffffffffffff811115612b8757612b866123f1565b5b612b9387828801612af2565b91505092959194509250565b5f5f60408385031215612bb557612bb46123ed565b5b5f612bc285828601612604565b9250506020612bd385828601612604565b9150509250929050565b7f4e487b71000000000000000000000000000000000000000000000000000000005f52602260045260245ffd5b5f6002820490506001821680612c2157607f821691505b602082108103612c3457612c33612bdd565b5b50919050565b5f606082019050612c4d5f8301866125c6565b612c5a60208301856127de565b612c6760408301846125c6565b949350505050565b7f4e487b71000000000000000000000000000000000000000000000000000000005f52601160045260245ffd5b5f612ca682612538565b91507fffffffffffffffffffffffffffffffffffffffffffffffffffffffffffffffff8203612cd857612cd7612c6f565b5b600182019050919050565b5f819050815f5260205f209050919050565b5f6020601f8301049050919050565b5f82821b905092915050565b5f60088302612d3f7fffffffffffffffffffffffffffffffffffffffffffffffffffffffffffffffff82612d04565b612d498683612d04565b95508019841693508086168417925050509392505050565b5f819050919050565b5f612d84612d7f612d7a84612538565b612d61565b612538565b9050919050565b5f819050919050565b612d9d83612d6a565b612db1612da982612d8b565b848454612d10565b825550505050565b5f5f905090565b612dc8612db9565b612dd3818484612d94565b505050565b5b81811015612df657612deb5f82612dc0565b600181019050612dd9565b5050565b601f821115612e3b57612e0c81612ce3565b612e1584612cf5565b81016020851015612e24578190505b612e38612e3085612cf5565b830182612dd8565b50505b505050565b5f82821c905092915050565b5f612e5b5f1984600802612e40565b1980831691505092915050565b5f612e738383612e4c565b9150826002028217905092915050565b612e8c826124a8565b67ffffffffffffffff811115612ea557612ea46129fb565b5b612eaf8254612c0a565b612eba828285612dfa565b5f60209050601f831160018114612eeb575f8415612ed9578287015190505b612ee38582612e68565b865550612f4a565b601f198416612ef986612ce3565b5f5b82811015612f2057848901518255600182019150602085019450602081019050612efb565b86831015612f3d5784890151612f39601f891682612e4c565b8355505b6001600288020188555050505b505050505050565b5f612f5d83856124b2565b9350612f6a838584612aa3565b612f73836124d0565b840190509392505050565b5f6020820190508181035f830152612f97818486612f52565b90509392505050565b5f612faa82612538565b9150612fb583612538565b9250828202612fc381612538565b91508282048414831517612fda57612fd9612c6f565b5b5092915050565b7f4e487b71000000000000000000000000000000000000000000000000000000005f52601260045260245ffd5b5f61301882612538565b915061302383612538565b92508261303357613032612fe1565b5b828204905092915050565b5f81905092915050565b5f613052826124a8565b61305c818561303e565b935061306c8185602086016124c2565b80840191505092915050565b5f6130838285613048565b915061308f8284613048565b91508190509392505050565b5f6130b56130b06130ab84612707565b612d61565b612538565b9050919050565b6130c58161309b565b82525050565b5f6060820190506130de5f8301866127de565b6130eb60208301856130bc565b6130f860408301846127de565b949350505050565b5f6040820190506131135f8301856127de565b61312060208301846125c6565b9392505050565b5f81519050919050565b5f82825260208201905092915050565b5f61314b82613127565b6131558185613131565b93506131658185602086016124c2565b61316e816124d0565b840191505092915050565b5f60808201905061318c5f8301876125c6565b61319960208301866125c6565b6131a660408301856127de565b81810360608301526131b88184613141565b905095945050505050565b5f815190506131d181612420565b92915050565b5f602082840312156131ec576131eb6123ed565b5b5f6131f9848285016131c3565b9150509291505056fea26469706673582212206b208f2452335de5ced2482df8e50ed131b5fd24c251f2d9118bcb8e6d0f512664736f6c634300081c0033",
  "linkReferences": {},
  "deployedLinkReferences": {},
  "immutableReferences": {},
  "inputSourceName": "project/contracts/MusicNFT.sol",
  "buildInfoId": "solc-0_8_28-94f9be9430c85c5d2472738fead10f3769a8f8b1"
}