{
  "_format": "hh3-artifact-1",
  "contractName": "Payment",
  "sourceName": "contracts/Payment.sol",
  "abi": [
    {
      "inputs": [],
      "name": "NoEarnings",
      "type": "error"
    },
    {
      "inputs": [],
      "name": "ReentrancyGuardReentrantCall",
      "type": "error"
    },
    {
      "inputs": [],
      "name": "TransferFailed",
      "type": "error"
    },
    {
      "inputs": [],
      "name": "ZeroAddress",
      "type": "error"
    },
    {
      "inputs": [],
      "name": "ZeroValue",
      "type": "error"
    },
    {
      "anonymous": false,
      "inputs": [
        {
          "indexed": true,
          "internalType": "address",
          "name": "artist",
          "type": "address"
        },
        {
          "indexed": false,
          "internalType": "uint256",
          "name": "amount",
          "type": "uint256"
        }
      ],
      "name": "EarningsWithdrawn",
      "type": "event"
    },
    {
      "anonymous": false,
      "inputs": [
        {
          "indexed": true,
          "internalType": "address",
          "name": "fan",
          "type": "address"
        },
        {
          "indexed": true,
          "internalType": "uint256",
          "name": "trackId",
          "type": "uint256"
        },
        {
          "indexed": true,
          "internalType": "address",
          "name": "artist",
          "type": "address"
        },
        {
          "indexed": false,
          "internalType": "uint256",
          "name": "amount",
          "type": "uint256"
        }
      ],
      "name": "StreamPayment",
      "type": "event"
    },
    {
      "anonymous": false,
      "inputs": [
        {
          "indexed": true,
          "internalType": "address",
          "name": "fan",
          "type": "address"
        },
        {
          "indexed": true,
          "internalType": "address",
          "name": "artist",
          "type": "address"
        },
        {
          "indexed": false,
          "internalType": "uint256",
          "name": "amount",
          "type": "uint256"
        }
      ],
      "name": "TipReceived",
      "type": "event"
    },
    {
      "inputs": [
        {
          "internalType": "address",
          "name": "artist",
          "type": "address"
        }
      ],
      "name": "earningsOf",
      "outputs": [
        {
          "internalType": "uint256",
          "name": "",
          "type": "uint256"
        }
      ],
      "stateMutability": "view",
      "type": "function"
    },
    {
      "inputs": [
        {
          "internalType": "uint256",
          "name": "trackId",
          "type": "uint256"
        },
        {
          "internalType": "address",
          "name": "artist",
          "type": "address"
        }
      ],
      "name": "streamPayment",
      "outputs": [],
      "stateMutability": "payable",
      "type": "function"
    },
    {
      "inputs": [
        {
          "internalType": "address",
          "name": "artist",
          "type": "address"
        }
      ],
      "name": "tipArtist",
      "outputs": [],
      "stateMutability": "payable",
      "type": "function"
    },
    {
      "inputs": [],
      "name": "totalPlatformPayments",
      "outputs": [
        {
          "internalType": "uint256",
          "name": "",
          "type": "uint256"
        }
      ],
      "stateMutability": "view",
      "type": "function"
    },
    {
      "inputs": [
        {
          "internalType": "uint256",
          "name": "",
          "type": "uint256"
        }
      ],
      "name": "trackEarnings",
      "outputs": [
        {
          "internalType": "uint256",
          "name": "",
          "type": "uint256"
        }
      ],
      "stateMutability": "view",
      "type": "function"
    },
    {
      "inputs": [],
      "name": "withdrawEarnings",
      "outputs": [],
      "stateMutability": "nonpayable",
      "type": "function"
    }
  ],
  "bytecode": "0x6080604052348015600e575f5ffd5b5060016029601f603360201b60201c565b605c60201b60201c565b5f01819055506065565b5f7f9b779b17422d0df92223018b32b4d1fa46e071723d6817e2486d003becc55f005f1b905090565b5f819050919050565b61095b806100725f395ff3fe608060405260043610610054575f3560e01c806306d1ab4b146100585780630d008cb2146100825780633979de3f1461009e5780638df08bd4146100ba578063b73c6ce9146100f6578063cbf3a20f1461010c575b5f5ffd5b348015610063575f5ffd5b5061006c610148565b604051610079919061074f565b60405180910390f35b61009c600480360381019061009791906107c6565b61014e565b005b6100b860048036038101906100b3919061081b565b6102be565b005b3480156100c5575f5ffd5b506100e060048036038101906100db91906107c6565b610457565b6040516100ed919061074f565b60405180910390f35b348015610101575f5ffd5b5061010a61049c565b005b348015610117575f5ffd5b50610132600480360381019061012d9190610859565b610657565b60405161013f919061074f565b60405180910390f35b60025481565b5f3403610187576040517f7c946ed700000000000000000000000000000000000000000000000000000000815260040160405180910390fd5b5f73ffffffffffffffffffffffffffffffffffffffff168173ffffffffffffffffffffffffffffffffffffffff16036101ec576040517fd92e233d00000000000000000000000000000000000000000000000000000000815260040160405180910390fd5b345f5f8373ffffffffffffffffffffffffffffffffffffffff1673ffffffffffffffffffffffffffffffffffffffff1681526020019081526020015f205f82825461023791906108b1565b925050819055503460025f82825461024f91906108b1565b925050819055508073ffffffffffffffffffffffffffffffffffffffff163373ffffffffffffffffffffffffffffffffffffffff167fe29bb1cb79db0d1631678501f5de8d2044e52abf619fb7bde4e36f65759d46b4346040516102b3919061074f565b60405180910390a350565b5f34036102f7576040517f7c946ed700000000000000000000000000000000000000000000000000000000815260040160405180910390fd5b5f73ffffffffffffffffffffffffffffffffffffffff168173ffffffffffffffffffffffffffffffffffffffff160361035c576040517fd92e233d00000000000000000000000000000000000000000000000000000000815260040160405180910390fd5b345f5f8373ffffffffffffffffffffffffffffffffffffffff1673ffffffffffffffffffffffffffffffffffffffff1681526020019081526020015f205f8282546103a791906108b1565b925050819055503460015f8481526020019081526020015f205f8282546103ce91906108b1565b925050819055503460025f8282546103e691906108b1565b925050819055508073ffffffffffffffffffffffffffffffffffffffff16823373ffffffffffffffffffffffffffffffffffffffff167fbc9c4c58547d876b734b989647931f31056af4eb0c9a00d26d8f1bbe4015cbf53460405161044b919061074f565b60405180910390a45050565b5f5f5f8373ffffffffffffffffffffffffffffffffffffffff1673ffffffffffffffffffffffffffffffffffffffff1681526020019081526020015f20549050919050565b6104a461066c565b5f5f5f3373ffffffffffffffffffffffffffffffffffffffff1673ffffffffffffffffffffffffffffffffffffffff1681526020019081526020015f205490505f810361051d576040517f4ee7a8de00000000000000000000000000000000000000000000000000000000815260040160405180910390fd5b5f5f5f3373ffffffffffffffffffffffffffffffffffffffff1673ffffffffffffffffffffffffffffffffffffffff1681526020019081526020015f20819055505f3373ffffffffffffffffffffffffffffffffffffffff168260405161058390610911565b5f6040518083038185875af1925050503d805f81146105bd576040519150601f19603f3d011682016040523d82523d5f602084013e6105c2565b606091505b50509050806105fd576040517f90b8ec1800000000000000000000000000000000000000000000000000000000815260040160405180910390fd5b3373ffffffffffffffffffffffffffffffffffffffff167f48dc35af7b45e2a81fffad55f6e2fafacdb1d3d0d50d24ebdc16324f5ba757f183604051610643919061074f565b60405180910390a2505061065561068e565b565b6001602052805f5260405f205f915090505481565b6106746106a8565b60026106866106816106e9565b610712565b5f0181905550565b60016106a061069b6106e9565b610712565b5f0181905550565b6106b061071b565b156106e7576040517f3ee5aeb500000000000000000000000000000000000000000000000000000000815260040160405180910390fd5b565b5f7f9b779b17422d0df92223018b32b4d1fa46e071723d6817e2486d003becc55f005f1b905090565b5f819050919050565b5f600261072e6107296106e9565b610712565b5f015414905090565b5f819050919050565b61074981610737565b82525050565b5f6020820190506107625f830184610740565b92915050565b5f5ffd5b5f73ffffffffffffffffffffffffffffffffffffffff82169050919050565b5f6107958261076c565b9050919050565b6107a58161078b565b81146107af575f5ffd5b50565b5f813590506107c08161079c565b92915050565b5f602082840312156107db576107da610768565b5b5f6107e8848285016107b2565b91505092915050565b6107fa81610737565b8114610804575f5ffd5b50565b5f81359050610815816107f1565b92915050565b5f5f6040838503121561083157610830610768565b5b5f61083e85828601610807565b925050602061084f858286016107b2565b9150509250929050565b5f6020828403121561086e5761086d610768565b5b5f61087b84828501610807565b91505092915050565b7f4e487b71000000000000000000000000000000000000000000000000000000005f52601160045260245ffd5b5f6108bb82610737565b91506108c683610737565b92508282019050808211156108de576108dd610884565b5b92915050565b5f81905092915050565b50565b5f6108fc5f836108e4565b9150610907826108ee565b5f82019050919050565b5f61091b826108f1565b915081905091905056fea2646970667358221220281b39de2cb00b12fee67c3c426aa4530d66d70d4b1375452e94e5202f52ba7e64736f6c634300081c0033",
  "linkReferences": {},
  "deployedLinkReferences": {},
  "immutableReferences": {},
  "inputSourceName": "project/contracts/Payment.sol",
  "buildInfoId": "solc-0_8_28-94f9be9430c85c5d2472738fead10f3769a8f8b1"
}